:020000040800F2
:10000000C8790020290300084F4700085D3D00081B
:100010004D470008E11000086D6300080000000073
:10002000000000000000000000000000690200085D
:100030009915000800000000C5020008795D00085D
:100040004303000843030008430300084303000878
:1000500043030008430300089B15000843030008FE
:1000600043030008A1150008A71500084303000872
:10007000E511000843030008430300084303000898
:100080004303000843030008430300084303000838
:10009000E51000084303000843030008AD150008FD
:1000A0004303000843030008430300084303000818
:1000B0004303000843030008430300084303000808
:1000C00043030008430300084303000843030008F8
:1000D0004303000849630008430300085563000810
:1000E00043030008430300084303000843030008D8
:1000F00043030008430300084303000843030008C8
:1001000043030008430300084303000843030008B7
:1001100043030008430300084303000843030008A7
:1001200043030008F1110008FD1100084303000813
:100130004303000843030008430300084303000887
:10014000F1100008430300084303000843030008BC
:10015000D1140008DD140008E91400084303000866
:100160004303000843030008430300084303000857
:100170004303000843030008430300080000000095
:10018000430300084303000800F002F800F05CF8A5
:100190000AA090E8000C82448344AAF10107DA45E2
:1001A00001D100F051F8AFF2090EBAE80F0013F0D8
:1001B000010F18BFFB1A43F001031847C49A00004F
:1001C000E49A00000A444FF0000C10F8013B13F0D1
:1001D000070408BF10F8014B1D1108BF10F8015BA0
:1001E000641E05D010F8016B641E01F8016BF9D193
:1001F00013F0080F1EBF10F8014BAD1C0C1B09D1EA
:100200006D1E58BF01F801CBFAD505E014F8016B5B
:1002100001F8016B6D1EF9D59142D6D370470000ED
:100220000023002400250026103A28BF78C1FBD8FF
:10023000520728BF30C148BF0B6070471FB509F097
:10024000BDF81FBD10B510BD00F078FA1146FFF7DC
:10025000F5FF07F009FA00F096FA03B4FFF7F2FF92
:1002600003BC00F099FA00002C4B19680868B0E84C
:10027000F04F80F30988BFF36F8F4FF0000080F3D9
:10028000118870470000000008480068006880F38B
:1002900008884FF0000080F3148862B661B6BFF39F
:1002A0004F8FBFF36F8F00DF00BF00BF08ED00E08E
:1002B000DFF80C00016841F470010160704700BF75
:1002C00088ED00E0EFF30980BFF36F8F134B1A68DE
:1002D0001EF0100F08BF20ED108A20E9F04F1060CB
:1002E00009B44FF0500080F31188BFF34F8FBFF374
:1002F0006F8F08F0D9FA4FF0000080F3118809BC25
:1003000019680868B0E8F04F1EF0100F08BFB0EC95
:10031000108A80F30988BFF36F8F70472800002090
:10032000EFF30580704700000948804709480047FF
:10033000FEE7FEE7FEE7FEE7FEE7FEE7FEE7FEE795
:10034000FEE7FEE704480549054A064B70470000F2
:10035000155E000889010008C8730020C8790020D4
:10036000C8750020C87500209FED1A1AF5EE000A26
:1003700040EE010ABDEEE00AF5EEC00A10EE100AEA
:10038000F1EE10FA38BF401E00EE100A1349F7EEE6
:10039000001AB8EEC00A30EEC00ADFED0F0A20EEF8
:1003A000200AFCEEC00A10EE900AC0F3080000EE2E
:1003B000900A01EB8000F8EE600A90ED011A70EEF1
:1003C000600A90ED000A71EEE01A21EE800A00EE5C
:1003D000810A704783F9223E000000445C940008C3
:1003E000DFED190AB5EEC00A60EE200ABDEEE01A94
:1003F00011EE100AF1EE10FA38BF401E00EE100A9E
:100400001349F7EE001AB8EEC00A30EEC00ADFED6D
:100410000F0A60EE200ABCEEE00A10EE100AC0F3EC
:10042000080000EE100A01EB8000B8EE400A90EDE3
:10043000011A70EEC00A90ED000A71EEE01A21EE8A
:10044000800A00EE810A704783F9223E00000044D2
:100450005C94000853EA020C00F069802DE9F04B2F
:100460004FF00006002B1FBFB3FA83F503FA05F423
:1004700024FA05F65E4012BF1643B2FA82F502FA7C
:1004800005F4C5F120051EBF22FA05FC44EA0C0460
:10049000203556EA044C4FEA144418BF641C4FF050
:1004A00000084FF00009904271EB030C39D300298A
:1004B00019BFB1FA81F701FA07F6B0FA80F700FA2E
:1004C00007F6C7F120071EBF20FA07FC46EA0C0614
:1004D0002037B6FBF4FCA7EB0507103F07F01F0B16
:1004E000CBF120060CFA0BFB2CFA06F644BFB34600
:1004F0000026202FA4BF5E464FF0000B5BEA060CDF
:1005000008BF4FF0010B19EB0B09ABFB027C48EB6A
:100510000608C01B06FB02CC0BFB03CC71EB0C01E5
:10052000C1E70B46024641464846BDE8F08B13B58D
:100530004FF000004FF00001AFF30080BDE81C4019
:10054000704710B5431C02E010F8011B71B1810720
:10055000FAD14FF0013202C88C1A8C4314EAC2114E
:10056000F9D0C01A0A0603D0C01E10BDC01A10BDB3
:100570000A0401D0801E10BD0902FCD0401E10BD2F
:10058000032A40F2308010F0030C00F0158011F8BF
:10059000013BBCF1020F624498BF11F801CB00F897
:1005A000013B38BF11F8013BA2F1040298BF00F8EB
:1005B00001CB38BF00F8013B11F0030300F02580A8
:1005C000083AC0F0088051F8043B083A51F804CBCF
:1005D000A0E80810F5E7121D5CBF51F8043B40F895
:1005E000043BAFF30080D20724BF11F8013B11F8A0
:1005F00001CB48BF11F8012B24BF00F8013B00F8E4
:1006000001CB48BF00F8012B704710B5203AC0F06D
:100610000B80B1E81850203AA0E81850B1E8185003
:10062000A0E81850BFF4F5AF5FEA027C24BFB1E840
:100630001850A0E8185044BF18C918C0BDE81040B1
:100640005FEA827C24BF51F8043B40F8043B08BFBA
:100650007047D20728BF31F8023B48BF11F8012B81
:1006600028BF20F8023B48BF00F8012B704702F07A
:10067000FF0343EA032242EA024200F002B84FF0CD
:1006800000020429C0F0128010F0030C00F01B805F
:10069000CCF1040CBCF1020F18BF00F8012BA8BF6D
:1006A00020F8022BA1EB0C0100F00DB85FEAC17C31
:1006B00024BF00F8012B00F8012B48BF00F8012BE4
:1006C00070474FF0000200B5134694469646203915
:1006D00022BFA0E80C50A0E80C50B1F12001BFF4FB
:1006E000F7AF090728BFA0E80C5048BF0CC05DF861
:1006F00004EB890028BF40F8042B08BF704748BFAF
:1007000020F8022B11F0804F18BF00F8012B704722
:1007100070477047704710B500F008F8006810BDCA
:1007200010B5044600F002F8046010BD00487047A0
:100730006873002000487047687300207546FFF713
:10074000F9FFAE4605006946534620F0070085468E
:1007500018B020B5FFF7F6FDBDE820404FF00006C9
:100760004FF000074FF000084FF0000B21F0070199
:10077000AC46ACE8C009ACE8C009ACE8C009ACE8DC
:10078000C0098D46704710B50446AFF3008020467F
:10079000BDE81040FFF761BD01491820ABBEFEE780
:1007A0002600020070470000464910B54A6822F44E
:1007B00040324A604A6843681A434A6001684A689E
:1007C00022F480724A6001684A68036942EA03229F
:1007D0004A6001684A6822F040724A6001684A68CB
:1007E00083681A434A6001688A6822F400628A605A
:1007F00001688A68C3681A438A60816A6FF0706210
:10080000D14201688A6822F070628A6001688A6851
:100810000CD0836A1A438A6001688A6822F04052C9
:100820008A6001688A68C36A1A4301E022F0405274
:100830008A6001688A6822F002028A6001688A6818
:10084000037E42EA43028A6090F820100029016882
:100850004A680FD042F400624A6001684A6822F494
:1008600060424A6001684A68174C436A04EB4333AC
:100870001A4301E022F400624A600168CA6A22F465
:100880007002CA620168CA6A838B104C04EB03537E
:100890001A43CA6201688A6822F400728A60016899
:1008A0008A6890F8303042EA43228A6001688A6898
:1008B00022F480628A6001688A68406942EA802086
:1008C000886010BD0023014000E0FFFF0000F0FF42
:1008D00005F070BD05F004BEFFF746BDF0EE400A1E
:1008E000F5EEC00AF1EE10FA02DDB0EE600A7047D4
:1008F000B1EE600AFBE70000002803D09FED020A7A
:1009000080ED000A7047000000000000002803D0BE
:10091000B3EE060A80ED000A7047000070B52DEDB9
:100920000C8B84B006460C4615469FED990AF0EEF6
:10093000408A9FED970AB0EE409A9FED950AF0EE3F
:1009400040BA9FED930AF0EE409A9FED910AB0EE07
:1009500040AA0EB104B11DB904B0BDEC0C8B70BD42
:100960008C48FFF7C9FF8C48FFF7D0FF8A48D0EDCD
:10097000000A9FED8A1A60EE810AB0EE600A00F06C
:1009800025F9F0EE408A28EEA80AF0EE408A824867
:10099000D0ED000AB0EE001A60EE810A9FED7F1ADA
:1009A00060EE810AB0EE600A00F010F9B0EE409AF5
:1009B00029EE090AB0EE409ADFED790AB7EE000A97
:1009C00000EEA80ADFED770A00EEC90ADFED760A2D
:1009D00020EE200A754880ED000A6E4890ED000A6E
:1009E000DFED730A80EE201AB7EE000A31EE000A3E
:1009F00020EE000A6D48D0ED000A80EE801A6D48A6
:100A000080ED001A94ED000AB5EEC00AF1EE10FA7E
:100A10000DD194ED010AB5EEC00AF1EE10FA06D13F
:100A200094ED020AB5EEC00AF1EE10FA46D09FED41
:100A3000580AB0EE408A0020019002900390D4ED55
:100A4000000A60EEA00A94ED011AD4ED011A41EEFD
:100A5000210A94ED021AD4ED021A41EE210AB0EEF9
:100A6000600A00F0A9F8B0EE408A94ED000A20EE8A
:100A7000080A8DED010A94ED010A20EE080A8DEDB9
:100A8000020A94ED020A20EE080A8DED030ADDED5C
:100A9000010AF1EE600AB0EE600AFFF719FFF0EE0E
:100AA000409A9DED031AF0EE410A9DED021AB0EE58
:100AB000410AFFF70FFFB0EE40AA07E09FED340AAE
:100AC000F0EE409A9FED320AB0EE40AA95ED000A92
:100AD000B5EEC00AF1EE10FA0DD195ED010AB5EEB2
:100AE000C00AF1EE10FA06D195ED020AB5EEC00A81
:100AF000F1EE10FA3CD0B0EE690A00F067F8B0EE03
:100B0000408AB0EE690AFFF7E7FEB0EE40DAB0EED9
:100B10004A0A00F05BF8F0EE40AAB0EE4A0AFFF78E
:100B2000DBFEB0EE40BA28EE2A0AD5ED010A20EE2F
:100B3000200AD5ED000A0DEE200A68EE0B0A95EDAD
:100B4000021A00EE810AB0EE40CA95ED010A20EECD
:100B50000B0AD5ED020A0AEEE00AF0EE40CAF0EE0A
:100B60006C0AB0EE4C0AFFF7B5FEF0EE40BA03E0B7
:100B70009FED070AF0EE40BAB0EE4A1AF0EE690AAD
:100B8000B0EE6B0A304605F0F5FF00BFE4E600006A
:100B900000000000800100208401002035FA8E3C16
:100BA000C1BFAD3B9DF8C5362F7C1C41880100209C
:100BB000506CC24A8C01002010B505F0E7FDB7EE7D
:100BC000001AC1EE000AB0EE600A10BDFFF708BCC3
:100BD0002DE9F0412DED028B9AB00546B0EE408A2A
:100BE0000E461746984600201790189019901490BA
:100BF000159016904DB146B13FB1B8F1000F04D039
:100C0000B5EEC08AF1EE10FA05D100201AB0BDECA5
:100C1000028BBDE8F08196ED000A8DED170A96ED86
:100C2000010A8DED180A96ED020A8DED190A97ED6D
:100C3000000A8DED140A97ED010A8DED150A97ED66
:100C4000020A8DED160A17AA14A9284605F0E4FD3C
:100C5000402104A8FFF735FD00200090019002908C
:100C60000390002417A904A807F09EFB00BF30E002
:100C700004A800EB041090ED000AD5ED000A20EE68
:100C8000200A04A800EB0410D0ED010A95ED011A2A
:100C900000EE810A04A800EB0410D0ED020A95EDE5
:100CA000021A00EE810A04A800EB0410D0ED030A3A
:100CB00095ED031A00EE810A20EE080AF0EE000A14
:100CC00080EE201A684600EB840080ED001A601C5C
:100CD000C4B2042CCCDB002410E005EB840090EDC2
:100CE000000A684600EB8400D0ED000A30EE200ACE
:100CF00005EB840080ED000A601CC4B2042CECDB20
:100D0000284607F0EFF9012080E7000001221021BA
:100D1000014801F07DBC00000000024000221021CB
:100D2000014801F075BC000000000240704700005F
:100D300001221146014801F06BBC00000004024092
:100D400000220121014801F063BC000000040240C0
:100D500030B5437804781B021BB2234300EE103AEF
:100D60001B4CB8EEC00AD4ED000A20EE200A81ED3B
:100D7000000AC37885781B021BB22B4300EE103AA1
:100D8000D4ED000AB8EEC00A20EE200A81ED010A77
:100D9000437904791B021BB2234300EE103AB8EEEC
:100DA000C00A20EE200ADFED0B0A81ED020A017A6B
:100DB000C3790904807941EA0321014300EE101A46
:100DC000B8EE400A20EE200A82ED000A30BD000095
:100DD0005401002000401C42704706F0B9BC06F0E8
:100DE0007FBA000010B542780378120212B21A439B
:100DF00000EE102A124BB8EEC00AD3ED010A20EE25
:100E0000200A81ED000AC2788478120212B22243CD
:100E100000EE102AD3ED010AB8EEC00A20EE200A37
:100E200081ED010A42790079120212B2024300EE0A
:100E3000102AB8EEC00A20EE200A81ED020A10BD89
:100E40005401002010B5FFF771FFFFF7C5FF05F053
:100E5000DBFF08B1802402E005F042FF044606F003
:100E6000A1F910B144F0400010BD06F02DF9204367
:100E700010BD00002DE9FC410746002016460D4636
:100E800000900190FFF74AFF922000F0BDF8062283
:100E90006946122000F09AF8FFF738FF9DF801002C
:100EA0009DF80010000200B2084300EE100A464C04
:100EB000B8EEC00AD4ED000A20EE200A85ED000A43
:100EC0009DF803009DF80210000200B2084300EEF6
:100ED000100AD4ED000AB8EEC00A20EE200A85ED13
:100EE000010A9DF805009DF80410000200B20843B5
:100EF00000EE100AB8EEC00A20EE200A85ED020AC4
:100F0000FFF71EFF08226946002000F05FF8FFF798
:100F10000FFF9DF800000F2830D19DF803009DF8C9
:100F20000210000200B2084300EE100AD4ED010ADC
:100F3000B8EEC00A20EE200A87ED000A9DF80500F1
:100F40009DF80410000200B2084300EE100AD4ED30
:100F5000010AB8EEC00A20EE200A87ED010A9DF8CA
:100F600007009DF80610000200B2084300EE100AC8
:100F7000B8EEC00A20EE200A87ED020AFFF7CEFE87
:100F8000A22000F041F802226946222000F01EF85B
:100F9000FFF7BCFE9DF800009DF80110C00040EA7C
:100FA0005110B0F5806F01DBA0F5006000EE100A73
:100FB000B4EE001AF8EEC00AB3EE070A00EE810A9A
:100FC00086ED000ABDE8FC815401002070B514468E
:100FD0000D4640F0800000F017F806E0552000F0C4
:100FE00013F8641E05F8010BE4B2002CF6D170BDB5
:100FF00010B50C4640F0800000F006F8552000F0D7
:1010000003F8207010BD000001B582B04FF47A7073
:101010000090012301AA02A9024802F029F89DF8D4
:1010200004000EBD6C09002002784078D20042EA2C
:101030005010B0F5806F01DBA0F5006000EE100AE3
:10104000B4EE001AF8EEC00AB3EE070A00EE810A09
:1010500081ED000A704710B50C46FFF7D5FF20461A
:10106000BDE81040FFF7D0BF10B50021134802F0D3
:101070007DFB0821124802F079FB06F01DF906F00D
:10108000F7F8104800F03AF80F4800F037F89FEDF5
:101090000F1A4FF47A72DFED0E0AB0EE412AF0EE2D
:1010A000411A9FED0C0A134603210B4803F0F8FB8D
:1010B000BDE810400021094802F058BB840A002016
:1010C000CC0A0020C8080020F00800200000000022
:1010D000CDCC4C3E0000C84484720020A40B0020FC
:1010E000FEE70000014800F004BD0000C808002031
:1010F000014800F0FEBC0000F008002010B50446D6
:101100000068124A00218AB0904202D105910991EB
:1011100005E00F4A904202D10E200590099001206F
:10112000CDE906100890009101910291039104917C
:101130006946204600F0CCFB204600F017FF022154
:10114000204600F045FB0AB010BD000000640040DE
:10115000006800403EB50D0A069C8DF804508DF8DD
:101160000510110A8DF80610190A8DF808108DF86F
:101170000930210A8DF80A1001A98DF80720009185
:101180008DF80B40082340F2FF12002100F001F817
:101190003EBDF0B587B000240C9E0746254649B1F8
:1011A0000420CDE90120CDE903538DF814504FF60A
:1011B000FE7506E002950092F5E7641CA4B2AC420D
:1011C0000CD8384600F07FFC0028F6D006AB32463B
:1011D0006946384600F00EFB002800D0012007B019
:1011E000F0BD0000014800F075BF0000780D002040
:1011F000014800F06FBF0000D80D00202DE9F05F1E
:10120000AB48AC4BAC4CC06CAA4DAB4EA94F006880
:10121000A849DFF8A492DFF89CA2DFF89CB2DFF8BF
:1012200094E2A54A483B603418351836303F09F13E
:1012300078090AF1300A4FF4006C0BF1300BAEF173
:10124000180E884223D99B49543926E0A84233D14D
:101250004FF020080AE0504535D1E04606E000BFD7
:101260004FF4001802E000BF4FF0006811EA080FC9
:101270007CD09049884253D9904205D0984203D0FF
:10128000A04201D0A8422FD14FF0200C45E08A495E
:10129000A831884203D987495839096805E0864949
:1012A000483188428549F8D949689042D0D098425F
:1012B000CED0A042CCD0C9E7B042CED0B842CCD03C
:1012C0004845CAD0C7E75845CAD07045C8D0DFF8EE
:1012D000E88108F190084045C2D0DFF8D88108F1D4
:1012E00048084045C0D1BBE7B04216D0B84214D040
:1012F000484512D0504510D0584509D0704507D008
:101300006D499031884203D06A494831884202D100
:101310004FF4001C01E04FF0006C66484C382AE0A6
:101320006549A831884229D9904205D0984203D016
:10133000A04201D0A84202D14FF0200C19E0B042E7
:1013400017D0B84215D0484513D0504511D0584554
:1013500009D0704507D058499031884203D055498B
:101360004831884203D14FF4001C02E09DE04FF069
:10137000006C50485038C0F800C052E04E49483127
:10138000884227D9904205D0984203D0A04201D08C
:10139000A84202D14FF0200C18E0B04216D0B8425B
:1013A00014D0484512D0504510D0584509D070454A
:1013B00007D041499031884203D03E4948318842A4
:1013C00002D14FF4001C01E04FF0006C3B48C0F824
:1013D0000CC026E0904205D0984203D0A04201D034
:1013E000A84202D14FF0200C18E0B04216D0B8420B
:1013F00014D0484512D0504510D0584509D07045FA
:1014000007D02D499031884203D02A49483188427B
:1014100002D14FF4001C01E04FF0006C2748C0F8E7
:1014200008C0274C207880070CD5207820F00200D7
:101430002070207840F004002070012211462148DD
:1014400001F0E6F86078204D80070CD5607820F038
:1014500002006070607840F004006070012210218A
:10146000284601F0D5F8A07880070CD5A07820F0A8
:101470000200A070A07840F00400A07001221021AA
:10148000284601F0C5F806F02FF8207840070CD563
:10149000207820F004002070207840F008002070B0
:1014A0000A48016841F001010160BDE8F09F0000B9
:1014B0006C09002058640240106002400060024045
:1014C000B00000200004024000000240103C014037
:1014D000014800F0FFBD0000B80C0020014800F0FA
:1014E000F9BD0000380E0020014800F0F3BD0000F7
:1014F000180D002001681823CAB2103AB2FBF3F2AB
:10150000054B6FF30901032A9B5CC36500D9091DD4
:1015100081650846704700001C94000810B501461C
:1015200000208B698A6A4FF0C07453B1B3F5005F35
:1015300015D072B1012A0CD0022A0AD0032A09D18F
:1015400004E01AB1012A06D0022A03D1C96AC901EE
:1015500000D5012010BDC96AA142FAD010BD002AF1
:10156000F7D0012AF2D0022AF3D0032AF3D010BD1B
:1015700030B50468256825F480252560046863601B
:101580008368402B036803D099600068C26030BD57
:101590009A600068C16030BD7047012000F034BF20
:1015A000082000F031BF102000F02EBF202000F0F6
:1015B0002BBF704778B50024009490F83C20012A96
:1015C00019D0012280F83C200A6807230568092AFF
:1015D00013D9EE680A3A02EB420293409E43EE6052
:1015E0000B788A680A3B03EB43039A400368DD6883
:1015F0002A43DA6010E0022078BD2E6902EB420235
:1016000093409E432E610B788A6803EB43039A4014
:1016100003681D692A431A614A681F23072A13D2E7
:1016200005686E6B521E02EB820293409E436E630E
:101630000B790A885B1E92B203EB83039A4003681E
:101640005D6B2A435A6327E005680D2A12D22E6B80
:10165000D21F02EB820293409E432E630B790A88CD
:10166000DB1F92B203EB83039A4003681D6B2A438E
:101670001A6311E0EE6A0D3A02EB820293409E4338
:10168000EE620B790A880D3B92B203EB83039A401A
:101690000368DD6A2A43DA62164B0568144A9D42E4
:1016A00006D10D68122D03D1556845F480055560AB
:1016B00005689D4218D10B68102B01D0112B13D156
:1016C000536843F400035360096810290CD10A4998
:1016D0000A4A0968B1FBF2F101EB8101490000E01F
:1016E000491E00910029FBD180F83C40002078BDC4
:1016F00000230140002001402400002040420F0050
:1017000070B504004FF0000503D0206C002610B126
:1017100007E0012070BD204600F01CF8666484F8E4
:101720003C60206CC00610D4206C20F4885040F03F
:10173000020020642046FFF737F86664206C20F032
:10174000020040F00100206400E0012584F83C60C4
:10175000284670BD10B586B0044614216846FEF7D1
:10176000B0FF174B2268002116489A4209D1016840
:1017700041F480710160006800F48070059006B04B
:1017800010BD114B9A42FAD1026842F480620260A5
:10179000006800F4806005900A481438026842F03E
:1017A00020020260006800F02000059018150090EB
:1017B0000320CDE901016946044800F031FEDEE76F
:1017C0000020014044380240002201400014024041
:1017D00090F82020012A07D0022A05D0416A41F45E
:1017E0008021416201207047006842690A434261DA
:1017F00000207047F0B590F820500468A468012DCF
:1018000005D0022D03D0416A41F480215DE014F03F
:10181000406F01D1E50055D5C4F30164022C03D912
:10182000416A41F4000150E00125A5401D608D682A
:101830004FF4C0739DB1CE6835434E6845EAC60586
:10184000066803EB0417F5514FF4C275076805EB02
:1018500004150E697E51097D012905D009E00E8825
:10186000CD6845EA4655EBE701684E5946F4807667
:101870004E511179D579567941EA056195792D0452
:1018800045EA062529434FF4C676056806EB04169B
:10189000A9511178D57841EA0561957852782D04DF
:1018A00045EA022211434FF4C475026805EB0415A2
:1018B0005151006803EB0411425842F001024250BA
:1018C0000020F0BD416A41F4001141620120F0BDE9
:1018D00010B590F82020012A07D0022A05D0416ACD
:1018E00041F480214162012010BD3B48D0F8002224
:1018F00042F00102C0F80022D0F8002222F47C520B
:10190000C0F80022D0F800224B6A42EA0322C0F855
:1019100000220A7D02F01F0301229A40D0F81C32F7
:101920009343C0F81C32CB69B3B9D0F80C3293435F
:10193000C0F80C328C894B6864F31F434C6900EB90
:10194000C404C4F840320C890B6864F31F434C692B
:1019500000EBC404C4F84432CB69012B16D1D0F893
:101960000C321343C0F80C320C884B6864F31F43ED
:101970004C6900EBC404C4F840320C89CB6864F3B2
:101980001F434C6900EBC404C4F844328B69002B3C
:10199000D0F804320ED01343C0F804320B69002B88
:1019A000D0F8143208D01343C0F81432096A012960
:1019B00004D008E09343EFE79343F5E7D0F81C1217
:1019C0001143C0F81C12D0F8001221F00101C0F838
:1019D0000012002010BD000000640040704730B5C8
:1019E00090F82040012C05D0022C03D0416A41F42C
:1019F00080215DE00468002955D02469A40754D0F3
:101A00004FF4D874056804EB01142D5915F0040542
:101A1000956005682D594ED0ED08556005682C5924
:101A200004F00204D4604FF4DA74056804EB011486
:101A30002D5905F00F05156105682D59C5F30725CA
:101A4000956105682C59240C54614FF4DC720468CC
:101A500002EB0112A4581C700468A458240A5C709C
:101A60000468A458240C9C700468A258120EDA7002
:101A70004FF4DE72046802EB0112A4581C71046872
:101A8000A458240A5C710468A458240C9C7104684E
:101A9000A258120EDA71006881B1016941F020018B
:101AA0000161002030BDE468A8E7416A41F40011FB
:101AB0004162012030BD6D0D1560AFE7C16841F096
:101AC0002001C160EDE70246002092F820100129B4
:101AD00001D002290CD111688A68520100D5012079
:101AE0008A68120100D5401C8968C90000D5401CD5
:101AF00070472DE9F05F0546006800244669D0F87C
:101B000004908768D0F80CB0D0F810A0D0F81880F6
:101B1000F10748D0F90714D001218160B80703D537
:101B2000284600F050FA0CE0780702D54FF4006424
:101B300007E0380702D54FF4805402E0284600F051
:101B400041FAF80516D529684FF480708860B80509
:101B500003D5284600F039FA0CE0780502D544F4A4
:101B6000005407E0380502D544F4804402E02846DA
:101B700000F02AFAF80316D529684FF480308860FF
:101B8000B80303D5284600F022FA0CE0780302D50A
:101B900044F4004407E0380302D544F4803402E002
:101BA000284600F013FA300707D55FEACB6004D56A
:101BB0002968102044F40074C86070074FF00807CB
:101BC00007D55FEA0B7004D52868C760284600F087
:101BD00099F9B00706D52868C068800702D0284662
:101BE00000F092F9700607D55FEACA6004D529684B
:101BF000102044F480640861B00607D55FEA0A70DB
:101C000004D528680761284600F0ACF9F00606D52F
:101C100028680069800702D0284600F0A4F9B003C4
:101C200008D55FEAC96005D52968102048602846B4
:101C300000F09AF9F00307D55FEA097004D5286827
:101C40004760284600F0C4F9300446D55FEA497081
:101C500040D5F00504D55FEAC87001D044F0010416
:101C6000B00504D55FEA887001D544F00204700520
:101C700004D55FEA487001D544F00404300529D545
:101C800018F0700F26D008F07000402815D006DC40
:101C9000102809D020280AD0302816D10AE0502870
:101CA0000ED0602811D10EE044F008040DE044F09D
:101CB00010040AE044F0200407E044F0400404E08B
:101CC00044F0800401E044F480742868816921F0C4
:101CD00070018161296804204860002C05D0686A81
:101CE000204368622846FFF779FEBDE8F09F70B593
:101CF000040003D094F8200010B104E0012070BD6E
:101D0000204600F081F82068016841F0010101607F
:101D100000F084FC0546052604E000F07FFC401B33
:101D20000A2811D820684068C007F6D020680168EA
:101D300021F00201016000F071FC05460BE000F0AB
:101D40006DFC401B0A2806D9606A40F400306062CE
:101D500084F82060D2E7206840688007EFD4207EB6
:101D60000128206801683DD021F080010160607E7B
:101D700001282068016838D021F040010160A07E70
:101D800001282068016833D021F020010160E07E45
:101D90000128206801682ED041F010010160207FE9
:101DA00001282068016829D021F008010160607FC6
:101DB00001282068016824D021F004010160D4E9E1
:101DC00002010843D4E90412114308436168491E23
:101DD00008432168C86100206062012084F8200067
:101DE000002070BD41F08001C0E741F04001C5E72F
:101DF00041F02001CAE721F01001CFE741F00801CE
:101E0000D4E741F00401D9E7F0B587B004461421C6
:101E10006846FEF756FC364B3648DFF8D0E01968C6
:101E2000D4F800C0334A03250226092710300024C5
:101E3000491CF44522D11960012907D1016841F0FC
:101E400000710160006800F000700590106840F0BB
:101E5000080010601068CDE9005600F00800CDE9D8
:101E6000047069462448CDE9024500F0D9FA002201
:101E70000521142000F04CFD142032E0DFF87CE056
:101E8000F44530D1D0F800C04CF0806CC0F800C0F0
:101E9000D0F800C001290CF0806CCDF814C0196096
:101EA00007D1016841F000710160006800F0007026
:101EB0000590106840F002001060106802AB00F05E
:101EC000020005906020CDE9000683E8B000694675
:101ED0000B4800F0A5FA00220521402000F018FD73
:101EE000402000F007FD07B0F0BD00000064004096
:101EF0000C00002030380240000C02400068004016
:101F0000000402407047000010B504460068104904
:101F10008AB0884219D107AB6A4600210D48FFF705
:101F20005EFD40B90098A0F50071053903D107A9FD
:101F3000094805F0CCFB09492068884205D107AB68
:101F40006A4600210648FFF74AFD0AB010BD0000AE
:101F500000640040C8080020D872002000680040DB
:101F6000F0080020704770477047000070B50446C5
:101F700090F82000012804D0606A40F400206062DC
:101F800018E0022084F820002068016821F0010197
:101F9000016000F043FB05460EE000BF00F03EFB91
:101FA000401B0A2808D9606A40F4003060620520AE
:101FB00084F82000012070BD20684068C007EDD182
:101FC000606270BD704770477047704770477047D8
:101FD000704710B5040002D0607910B106E001200E
:101FE00010BD00202071204600F004F8012060712F
:101FF000002010BD08B500680649884208D106488F
:10200000016841F480510160006800F48050009044
:1020100008BD000000300240303802402DE9F04198
:102020000446876D00F0FAFA064694F8350000255C
:10203000022806D08020606584F834500120BDE875
:10204000F0812068016821F0160101602068416973
:1020500021F080014161206C08B9A06C20B120689A
:10206000016821F0080101602068016821F0010188
:1020700001600CE000F0D2FA801B052807D920206F
:102080006065032084F8350084F83450D7E7206871
:102090000068C007EED194F85C103F208840B8601B
:1020A000012084F8350084F834500020C7E790F808
:1020B0003510022903D08021416501207047052198
:1020C00080F835100068016821F0010101600020EE
:1020D000704700002DE9F84304464FF00009CDF8A1
:1020E000009063484FF41651A56D0068B0FBF1F7FE
:1020F0002E6894F85C10082000FA01F131420FD0EC
:1021000021680A6852070BD50A6822F004020A60A7
:1021100094F85C108840A860606D40F00100606534
:1021200094F85C104FF0010808FA01F0304208D032
:1021300021684969090604D5A860606D40F0020075
:10214000606594F85C1004208840304208D0216813
:102150000968890704D5A860606D40F004006065D7
:1021600094F85C1010208840304218D0216809682B
:10217000090714D5A86020680168490304D50068E0
:10218000000308D5A16C07E00168C90503D4016804
:1021900021F008010160216C09B12046884794F8BC
:1021A0005C1020208840304231D021680968C9067F
:1021B0002DD5A86094F8350005282068016806D060
:1021C000490347D5006800031DD4616C1CE021F071
:1021D000160101602068416921F080014161206C95
:1021E00008B9A06C20B12068016821F008010160E5
:1021F00094F85C103F208840A86084F8358084F80B
:102200003490216D1FE0E16B09B120468847606D75
:1022100000282BD0606DC00714D0052084F835004D
:102220002068016821F0010101600098401C0090C5
:10223000B84203D820680068C007F6D184F835801A
:1022400084F83490E16C002910D001B02046BDE83C
:10225000F04308470168C905D5D4016821F0100191
:10226000016084F8358084F83490CCE7BDE8F883C9
:10227000240000202DE9F041044600F0CFF9064685
:102280005CB1022084F83500002584F834502068C1
:10229000016821F0010101600DE00120BDE8F0813D
:1022A00000F0BCF9801B052805D9202060650320BB
:1022B00084F83500F2E720680068C007F0D1226892
:1022C000116820480140D4E901031843D4E90336DA
:1022D0003343184363691843A3691843E3691843F8
:1022E000236A18430843616A042903D1D4E90B1314
:1022F00019430843106020684069666A20F00701AE
:1023000030460E43012704280CD1A06A0643E06A38
:1023100040B12046FFF702F920B14020606584F803
:102320003570BAE7206846612046FFF7E3F894F875
:102330005C203F2191408160656584F83570002004
:10234000ACE700003F8010F070B5044690F8340010
:10235000002501280CD0012084F8340094F8356061
:102360000020012E06D084F834000225284670BDD6
:10237000022070BD022684F8356060652046FFF7B4
:10238000F7F82068016841F001010160EEE7000004
:1023900010B51B4C10281AD0202821D008282AD08C
:1023A000012813D106F042FE01280FD004F11001DC
:1023B000606906F09DF92069002807D011494FF0A7
:1023C00080500860BFF34F8FBFF36F8F10BD6078F0
:1023D00040F001006070A07840F00100A07003E0C0
:1023E000207840F00100207020790028EED0BDE870
:1023F000104005F079B8E07840F00100E07010BDC1
:10240000B000002004ED00E0044910B50A68024263
:1024100002D00860FFF7BCFF10BD0000143C014073
:102420002DE9F84FDFF8BCA1002201250AF1040BC9
:1024300003264FF00F090BF1040E00BF0B6805FADD
:1024400002F42340A34270D10F7907F00307012F54
:1024500001D0022F16D187684FEA420806FA08FC1D
:1024600027EA0C07D1F80CC00CFA08FC4CEA070C60
:10247000C0F808C04768A7430C79C4F3001494401F
:102480003C4344600C79E443A4070AD0C4684FEA93
:10249000420C06FA0CF7BC438F6807FA0CF7274387
:1024A000C7600C7904F00304022C12D1D40800EBAD
:1024B000840CDCF820405707FF0E09FA07F824EADD
:1024C0000804D1F8108008FA07F848EA0408CCF8A4
:1024D000208004684FEA420C06FA0CF7BC430F79DF
:1024E00007F0030707FA0CF7274307604C6814F45A
:1024F000403F70D03C4C276847F4804727602468F1
:1025000022F0030704F480440094384C07EB040CD9
:10251000DCF8084897074FEA177809FA08F7BC4330
:10252000334FB84202D1002724E054E0314FB84283
:1025300001D101271EE0304FB84201D1022719E036
:102540002E4FB84201D1032714E02D4FB84201D1DC
:1025500004270FE02B4FB84201D105270AE02A4F8C
:10256000B84201D1062705E0284FB84201D107271C
:1025700000E0082707FA08F72743CCF80878DAF8CC
:1025800000405746D1F804C09C435FEACC3C00D5DC
:102590001C433C60DBF800405F46D1F804C09C431C
:1025A0005FEA8C3C00D51C433C60DEF80040774677
:1025B000D1F804C09C435FEACC2C00D51C433C609E
:1025C000084F0C373C68D1F804C09C435FEA8C2C60
:1025D00000D51C433C60521C102AFFF42FAFBDE80D
:1025E000F88F0000003C01404438024000300140B8
:1025F000000002400004024000080240000C0240BB
:10260000001002400014024000180240001C02406A
:102610000AB1816170470904FBE700000148806846
:10262000704700001800002070B5040025D094F811
:102630003D00002520B984F83C50204600F0B8F851
:10264000242084F83D002068016821F00101016028
:102650002068016841F4004101602068016821F4AC
:102660000041016000F020FA4D4A6168914201D8B2
:102670004C4900E04C49884201D2012070BD4B49D1
:102680002368B0FBF1F15E6826F03F060E435E6002
:102690006368934206D94FF4967359434FF47A73A3
:1026A000B1FBF3F12368491C1E6A26F03F06314353
:1026B00019626168914210D84900401EB0FBF1F2E6
:1026C000521CC2F30B02042A01D2042022E0B0FB08
:1026D000F1F0401CC0F30B001CE0A268F2B301EB68
:1026E000C10303EB0116431EB3FBF6F35B1C43F47B
:1026F00080431B0549D092B301EBC10202EB0111EB
:10270000401EB0FBF1F0401CC0F30B0040F48040D1
:1027100040F400402168CA694CF6FF739A431043A5
:10272000C861D4E9071001432068026822F0C002A2
:1027300011430160D4E9030101432068826848F233
:10274000FF339A4311438160D4E9050108432168AE
:10275000CA6822F0FF021043C86001E00EE016E0F4
:102760002068016841F0010101602564202084F89F
:102770003D00256384F83E50002070BD01EB41060A
:10278000431EB3FBF6F35B1CB3E70120C2E701EB8A
:102790004101401EB0FBF1F0401CC0F30B00B7E755
:1027A000A086010080841E0000093D0040420F0009
:1027B000F0B587B0044614216846FDF782FF1A4938
:1027C000206888422DD11948016841F00401016058
:1027D000016801F004010591016841F00101016007
:1027E0000068122400F0010005904FF400700125EC
:1027F000032604278DE8F10069460D48FFF710FE17
:1028000028028DE8F10069460A48FFF709FE0748EB
:102810001030016841F400010160006800F400001C
:10282000059007B0F0BD0000005C00403038024069
:10283000000802400000024002488168027811440A
:1028400081607047180000200B4810B5016841F402
:1028500000710160016841F480610160016841F428
:1028600080710160032000F073F80F2000F006F87B
:1028700000F024F8002010BD003C024070B50D4D62
:1028800004464FF47A712878B1FBF0F00A490968E0
:10289000B1FBF0F000F0DDFC48B9102C07D20022AB
:1028A0002146501E00F034F800206C6070BD0120FD
:1028B00070BD000018000020240000200C4882B0E9
:1028C000016841F480410160006800F4804000909C
:1028D0000748001F016841F0805101600068002234
:1028E00000F0805000900F21901E02B000F010B850
:1028F00044380240002809DB00F01F02012191400A
:102900004009800000F1E020C0F80011704700008D
:10291000F0B40E4B1B680C46C3F30223C3F107054A
:10292000042D00D90425191D072901D2002300E038
:10293000DB1E012606FA05F1491E214099409E4002
:10294000761E16403143F0BC03F024BD0CED00E0D0
:10295000064900F0070208684FF6FF03184040EAF6
:102960000220034A10430860704700000CED00E0AD
:102970000000FA052DE9F0470E46050065D0DFF8A6
:102980001481D8F80000F7B200F00700B04207D277
:1029900088F80070D8F8000000F00700B04254D169
:1029A00028683D4C810712D5400703D5206840F4C4
:1029B000E05020602878000703D5206840F460408C
:1029C00020602068A96820F0F00008432060287883
:1029D000C0072DD0304968680839012812D0022874
:1029E00013D0032811D00968890700292DDA21683E
:1029F00021F0030101432160FFF710FE814641F2FF
:102A0000883A0EE009688903EFE709688901ECE775
:102A1000FFF704FEA0EB0901514502D90320BDE8F0
:102A2000F0872068696800F00C00B0EB810FEFD1EF
:102A3000D8F80010404601F00701B14207D90770ED
:102A4000006800F00700B04201D00120E7E72878D5
:102A5000400705D52068E96820F4E050084320606D
:102A60002878000706D52068296920F4604040EAEC
:102A7000C100206000F038F82168084AC1F3031152
:102A8000515CC8400649086006480068FFF7F6FE3A
:102A90000020C4E7003C02400838024024940008AB
:102AA000240000201C000020044805490068096833
:102AB000044AC1F38221515CC840704724000020C1
:102AC0000838024034940008044805490068096841
:102AD000044AC1F34231515CC840704724000020D1
:102AE0000838024034940008154810B5006810F00A
:102AF0000C02144813D01449042A0FD0082A0ED10E
:102B00000F4C241F2268236802F03F025B0207D5A6
:102B10002068C0F38810A0FB010106E0084610BD44
:102B20002168C1F38811A1FB00010023FDF792FC8D
:102B30002168C1F30141491C4900B0FBF1F010BD0F
:102B4000083802400024F400001BB7002DE9F84FBC
:102B500004006ED02078DFF84C93C007A9F104057B
:102B60004AD009F104000168C1F38101012908D0AC
:102B70000068C0F3810002280AD1D9F800004002A1
:102B800006D52868800337D560680028E1D033E097
:102B90006068B0F5803F10D0B0F5A02F286810D045
:102BA00020F480302860286820F480202860606845
:102BB000A8B1FFF733FD06460DE0286840F48030E9
:102BC000F4E740F480202860F7E700BFFFF726FD18
:102BD000801B642873D828688003F7D50CE0FFF7C2
:102BE0001DFD064605E000BFFFF718FD801B6428A9
:102BF000F0D828688003F7D42078DFF8AC8280070B
:102C00004FF0000A3ED5A748001D016811F00C0FD7
:102C100008D00068C0F3810002280BD1D9F8000069
:102C2000400207D42868800716D5E068012800D143
:102C300012E033E1E068B8B10120C8F80000FFF706
:102C4000EDFC064605E000BFFFF7E8FC801B02280C
:102C5000C0D828688007F7D52868216920F0F800D7
:102C600040EAC10028600DE0C8F800A0FFF7D6FCDC
:102C7000064604E0FFF7D2FC801B02281FD8286814
:102C80008007F7D42078000722D5864F87486169EE
:102C9000703771B101210160FFF7C0FC064604E006
:102CA000FFF7BCFC801B022809D838688007F7D5DD
:102CB0000EE0C0F800A0FFF7B1FC064605E082E098
:102CC000FFF7ACFC801B02287DD838688007F7D45A
:102CD0002078400768D5DFF8CCB100270BF13C0B1A
:102CE000DBF80000C0000BD4DBF8001041F080518D
:102CF000CBF80010DBF80000012700F080500090B6
:102D00006B4E3068C00510D4306840F4807030607D
:102D1000FFF784FC009005E0FFF780FC0099401A63
:102D2000022850D83068C005F6D55E4EA0686C36D3
:102D300001280FD00528306810D020F00100306045
:102D4000306820F004003060A068B8B1FFF766FC7E
:102D500000900FE0306840F00100F4E740F004001C
:102D60003060F7E7FFF75AFC0099411A41F28830CA
:102D7000814266D830688007F4D50EE0FFF74EFC3C
:102D8000009007E0FFF74AFC0099411A41F28830B1
:102D9000814256D830688007F4D42FB1DBF8001098
:102DA00021F08051CBF80010A069C8B33D49091D3E
:102DB0000968C1F3810102294AD00228504607D090
:102DC000C8F8600000E03CE0FFF728FC04463BE068
:102DD0004746C8F86000FFF721FC064605E000BF43
:102DE000FFF71CFC801B02282BD828688001F7D431
:102DF000D4E907010843A16A2E4A490802EB0141C0
:102E0000626A41EA8211084394F82C1040EA016199
:102E1000C9F8001001203866FFF700FC044606E000
:102E20003EE000BFFFF7FAFB001B022809D8286824
:102E30008001F7D534E000BFFFF7F0FB001B02284C
:102E400002D90320BDE8F88F28688001F4D427E078
:102E50000128F7D0D9F80000E26900F4800191421E
:102E60001CD1226A00F03F01914217D147F6C07190
:102E7000626A0140B1EB821F10D1A26A4FF0FF33AA
:102E800000F4403103EB5202B1EB024F06D194F84B
:102E90002C1000F07060B0EB016F01D00120D1E781
:102EA0000020CFE70438024000004742800E47422E
:102EB000007000400000FFFF70B5040009D0606A98
:102EC000002540B125616561A56294F8510040B1CB
:102ED0000CE0012070BD6068B0F5827FF4D0E56140
:102EE000F2E784F85050204600F044F8022084F8BD
:102EF00051002068016821F040010160A08821890B
:102F000000F4827001F404410843A18901F40061D6
:102F10000843217C01F002010843217D01F00101F9
:102F20000843218B01F400710843217F01F038012F
:102F3000084394F8201001F080010843218D01F42A
:102F40000051084321680860A069042101EA10408B
:102F500094F8241001F010010843216848602068AB
:102F6000C16921F40061C1616565012084F85100E7
:102F7000002070BD2DE9F04387B006461421684655
:102F8000FDF79FFB34493068884261D13348002502
:102F9000016841F480510160006800F480500590A0
:102FA0002E481438016841F002010160016801F007
:102FB00002010591016841F00101016000680224ED
:102FC00000F001000590182001274FF003084FF092
:102FD00005098DE8910369462148FFF721FA802011
:102FE0008DE8910369461F48FFF71AFA1F4C1E48E7
:102FF0004FF0C0672060C4E901754FF48068C4E9F0
:10300000035865617812A561C4E9075020466562DE
:10301000FFF730F908B1FEF7CCFAF464A663134C5D
:10302000114860341830E4E802074020A4E8210188
:10303000C00244F81459A561C4E907500B48656201
:103040006030FFF717F908B1FEF7B3FAB464A6636E
:1030500007B0BDE8F0830000003001404438024072
:10306000000402400000024040640240C409002005
:103070002DE9F84F044690F8500000270A9E1D469F
:1030800092468B464FF0010901280ED0012084F8AA
:103090005000FFF7C3FA804694F851006168012898
:1030A0000CD0B1F5827F07D102E00220BDE8F88F95
:1030B000A16809B9042801D00227C2E0BBF1000FC2
:1030C00027D0BAF1000F24D01DB394F85100042882
:1030D00002D0052084F8510000206065C4F838A0B3
:1030E000E587A587C4F830B0E586A58620646064CE
:1030F00020680168490603D4016841F0400101607D
:10310000E068B0F5006F606805D0E8B3012D46D0E7
:103110007FE0012795E008B1012D39D1206B2168AE
:103120000088C860206B801C2063E08E401EE08613
:103130002EE02068816889070FD5E18E69B1B9F169
:10314000010F0AD1216B0988C160206B801C2063AC
:10315000E08E401EE0864FF0000920688168C907B4
:103160000CD0E18F51B1C068A16B0880A06B801CAE
:10317000A063E08F401EE0874FF00109FFF74EFA91
:10318000A0EB0800B04200E009E001D3701C50D170
:10319000E08E0028CDD1E08F0028CAD13FE0206B1F
:1031A000216800780873206B401C2063E08E401E6D
:1031B000E0862EE02068816889070FD5E18E69B12D
:1031C000B9F1010F0AD1216B09780173206B401C02
:1031D0002063E08E401EE0864FF000092068816881
:1031E000C9070CD0E18F51B1C068A16B0870A06B0A
:1031F000401CA063E08F401EE0874FF00109FFF7FD
:103200000DFAA0EB0800B04202D3701C01D010E010
:103210007EB1E08E0028CDD1E08F0028CAD1424691
:103220003146204602F01CFD28B1012720206065B0
:1032300007E0032705E0A06818B92068C168806826
:103240000090012084F85100002084F85000384696
:103250002CE710B5401EB0F1807F01D3012010BDD6
:103260004FF0E02460610F21601703F093F8002015
:10327000A06107202061002010BD10B590F83C200F
:10328000012A22D0012280F83C20CA688C6822F4EE
:10329000407222434C6822F4806222430C6822F47C
:1032A000006222430C6922F4805222434C6922F4CA
:1032B00000522243C969002322F480420A43016874
:1032C0004A6480F83C30002010BD022010BD000090
:1032D00070B590F83C20012A32D0012480F83C409F
:1032E000022280F83D2003685A689D6822F070062B
:1032F0000A6832435A60134B02689A4214D0B2F102
:10330000804F11D0104B9A420ED0104B9A420BD0E6
:103310000F4B9A4208D00F4B9A4205D00E4B9A425F
:1033200002D00E4B9A4204D1496825F0800319431C
:10333000916080F83D40002180F83C10084670BD47
:10334000022070BD00000140000400400008004061
:10335000000C004000040140004001400018004003
:1033600010B5040003D094F83D0010B107E001202F
:1033700010BD002084F83C00204600F01FF8022019
:1033800084F83D00211D206802F04CFD012084F8E6
:10339000460084F83E0084F83F0084F8400084F83A
:1033A000410084F8420084F8430084F8440084F823
:1033B000450084F83D00002010BD000008B50068FD
:1033C0000C49884208D10C48016841F004010160B1
:1033D000006800F004000BE00849884209D1064863
:1033E000001D016841F400310160006800F4003004
:1033F000009008BD000800404038024000440140F1
:1034000070B5044690F83C000025012817D001262D
:1034100084F83C60022084F83D002068826822F035
:10342000770222F47F4282600868502838D00DDC91
:1034300020284FD005DC90B3102811D14AE002209B
:1034400070BD302846D040280AD13BE060282FD0FC
:1034500070280DD0B0F5805F03D0B0F5005F12D0BA
:10346000012584F83D60002084F83C00284670BDAA
:10347000CB68D1E90121206802F045FD2068816810
:1034800041F0770109E0CB68D1E90121206802F021
:103490003AFD2068816841F480418160E1E719E0EC
:1034A000CA684968206802F003FE5021206806E0DF
:1034B000CA684968206802F00CFE6021206802F0AA
:1034C0002CFDCEE7CA684968206802F0F1FD402172
:1034D0002068F4E7226801461046F0E770B586B030
:1034E000044614216846FDF7ECF8334D23680022AA
:1034F000324802210124AB420FD1036843F010038C
:103500000360006800F01000059008028DE80700D5
:10351000CDE9032469462A4811E02A4DAB4212D175
:10352000036843F004030360006800F004000590A2
:10353000A8158DE80700CDE9032169462248FEF76A
:103540006FFF06B070BD214E0325B3420ED1036854
:1035500043F008030360006800F008000590301491
:103560008DE82700049169461948E8E7194A934213
:103570000FD1026842F080020260006800F0800013
:1035800005904FF4E0508DE83300049169461248ED
:10359000D5E7124A9342D4D1026842F02002026079
:1035A000006800F02000059040208DE81300CDE970
:1035B000031569460A48C2E700000140303802405E
:1035C00000100240000400400008024000080040D3
:1035D000000C0240000C0040001C0240004401406E
:1035E0000014024070B5044690F83C0000260D46D9
:1035F00001280FD0012084F83C006AB1042A1DD0B4
:10360000082A2FD00C2A3FD00126002084F83C0045
:10361000304670BD022070BD206802F087FC206833
:10362000816941F0080181612068816921F004010C
:103630008161206881692A69114311E0206802F0E4
:10364000A5FC2068816941F400618161206881697D
:1036500021F480618161206881692A6941EA02213F
:103660008161D2E7206802F0C7FC2068C16941F09F
:103670000801C1612068C16921F00401C1612068AD
:10368000C1692A69114311E0206802F0E9FC206851
:10369000C16941F40061C1612068C16921F48061A0
:1036A000C1612068C1692A6941EA0221C161ACE7B0
:1036B00010B5040003D094F83D0010B107E00120DC
:1036C00010BD002084F83C00204600F01FF80220C6
:1036D00084F83D00211D206802F0A4FB012084F83D
:1036E000460084F83E0084F83F0084F8400084F8E7
:1036F000410084F8420084F8430084F8440084F8D0
:10370000450084F83D00002010BD000008B50168A8
:103710001248814208D11248016841F0010101605C
:10372000006800F001000BE00D480E4A001F9142B6
:1037300008D1016841F002010160006800F0020058
:10374000009008BD084A9142FBD1016841F0080190
:103750000160006800F00800F2E70000000001408E
:103760004438024000040040000C004010B50446FC
:10377000022249B104290ED0082913D094F841003F
:10378000012816D0012010BD94F83E000128F9D17F
:1037900084F83E200FE094F83F000128F2D184F82D
:1037A0003F2008E094F840000128EBD184F8402045
:1037B00001E084F841200122206802F097FB1649BD
:1037C0002068164A884201D0904203D1436C43F4EA
:1037D000004343642068884213D0B0F1804F10D07A
:1037E0000F4988420DD00F4988420AD00E498842BD
:1037F00007D0904205D00D49884202D00C4988423A
:1038000004D1816801F00701062903D0016841F065
:1038100001010160002010BD0000014000040140D2
:103820000004004000080040000C0040004001403F
:103830000018004070477047F8B5016804460868F2
:10384000CA684B6910F00F0F4FF0000559D003F014
:10385000010602F49077374365D0C10705D0D10542
:1038600003D5216C41F001012164410705D5D90739
:1038700003D0216C41F002012164810705D5D907ED
:1038800003D0216C41F004012164010707D502F047
:103890002001314303D0216C41F008012164216CE7
:1038A00000293AD0800604D5900602D5204602F0C1
:1038B00064FC20684069216CC0F38010090700D4C3
:1038C00060B3204602F032FC20684069400621D5F2
:1038D0002068143050E8001F21F0400140E8001239
:1038E000002AF5D1A06BA8B16C490165A06BFEF769
:1038F000DEFB002811D0A06B016D01B0BDE8F040E7
:10390000084783060FD593060DD52046BDE8F8403D
:1039100002F033BC2046FFF78EFFF8BD2046FFF7CC
:103920008AFF2564F8BD266B2023012E79D1C606B7
:1039300077D5D60675D5086848680090486940066E
:1039400040D5A16B086840680004000CEAD0A28D45
:103950008242E7D9E085C869B0F5807F2DD0206824
:103960000C3050E8001F21F4807140E80012002A5A
:10397000F5D12068143050E8001F21F0010140E823
:103980000012002AF5D12068143050E8001F21F001
:10399000400140E80012002AF5D184F83E3025634A
:1039A00020680C3050E8001F21F0100140E80012A0
:1039B000002AF5D1A06BFEF731FBA08DE18D401AF6
:1039C00081B229E0A08DE18D401A81B2E08D0028FE
:1039D000A8D00029A6D020680C3050E8002F22F48F
:1039E000907240E80026002EF5D12068143050E88F
:1039F000002F22F0010240E80026002EF5D184F8C5
:103A00003E30256320680C3050E8002F22F0100271
:103A100040E80023002BF5D12046FFF70BFFF8BD4F
:103A2000FFE705062BD5150629D594F83D0021287A
:103A3000F5D1A068B0F5805F01D12069B0B1206AEE
:103A4000411C2162216800784860E08C401E00041F
:103A5000000CE084E3D12068C16821F08001C160DE
:103A60002068C16841F04001C160D8E7206A008841
:103A7000C0F308004860206A801C2062E5E7400629
:103A8000CDD55006CBD5CA68204622F04002CA6088
:103A900084F83D3000F061F9C1E700001D610008C5
:103AA00070B5040004D094F83D00002510B106E084
:103AB000012070BD84F83C50204600F023F82420FB
:103AC00084F83D002068C16821F40051C16020469F
:103AD00002F0B4FB2068016921F490410161206883
:103AE000416921F02A0141612068C16841F4005117
:103AF000C1602564202084F83D0084F83E00002049
:103B000070BD00002DE9F04F87B0044614216846CF
:103B1000FCF7D7FD8548DFF810821438D4F800C0D0
:103B2000824A022103260723002507154FF0400B88
:103B30004FF0006AC44564D1D2F800C04CF0100CBC
:103B4000C2F800C0126802F010020592026842F04A
:103B500002020260026802F002020592026842F06C
:103B6000010202600068884600F001000590802094
:103B7000CDE900080DF1080C99468CE86002694611
:103B80006B48FEF74DFC7810CDE900080DF10808F0
:103B9000694688E860026748FEF742FC674E66485F
:103BA0004FF400393060C6E901A5C6E903577561D5
:103BB000B561C6E90759D04630467562FEF75AFB33
:103BC00008B1FDF7F6FCA663B4635C4E5A48603654
:103BD0003030C6E903577561B561C6E907597562AA
:103BE00086E801093046FEF745FB08B1FDF7E1FC28
:103BF0006663002205212520B463FEF789FE252097
:103C00003DE0DFF83C814FF48079C4453CD1474A20
:103C1000121FD2F800C04CF4802CC2F800C0126809
:103C200002F480220592026842F0040202600068F9
:103C3000049300F0040005904FF440608DE86300A9
:103C400069464048FEF7ECFB3C4E3F48C0363060CA
:103C5000C6E901A5C6E903577561C6E9065935628B
:103C600030467562FEF706FB08B1FDF7A2FCA663BD
:103C7000002205212720B463FEF74AFE2720FEF725
:103C800039FE07B0BDE8F08F304B9C45F9D1136881
:103C900043F020031360126802F0200205920268CC
:103CA00042F040020260006800F0400005904FF4CE
:103CB00084408DE863000820049069462448FEF79C
:103CC000AFFB1D48234E60384FF020683060C6E9D6
:103CD0000185C6E903577561C6E906593562304664
:103CE0007562FEF7C7FA08B1FDF763FCA663B4631B
:103CF000184E114860361830C6E903577561B56132
:103D0000F5613562756286E801093046FEF7B2FA60
:103D100008B1FDF74EFC6663002205214720B4631D
:103D2000FEF7F6FD4720AAE70010014044380240A4
:103D3000000402400000024088640240B80C0020E9
:103D40000048004000080240286002400014014082
:103D500000180240D80D002070477047FEE70000B1
:103D60000EB5072003F0F4FC804C02E0642003F061
:103D7000EFFCFDF767F8E0710028F7D17C4A101DD1
:103D8000CDE90102A2F1100909F10401FDF772F871
:103D90004B46A3F1340209F1480AA2F10C01A1F14A
:103DA0000C00CDF800A003F029FBA9F13402A2F128
:103DB0000C0101F11800FCF7B1FDA9F14007A7F1D2
:103DC000180597ED000AA5F10C0685ED000AA5F18E
:103DD000180886ED000A88ED000A97ED010A002018
:103DE00085ED010A86ED010A88ED010A97ED020AC8
:103DF00085ED020A86ED020A88ED020A03F0DEFC78
:103E000005F0D0F85B4960611020C8610846FFF7F3
:103E100053F808B1FDF7CDFB544908222431A1F134
:103E2000080001F0A5FE012020714FF0FF3B208922
:103E3000401C20815946012004F082FA0128F9D162
:103E40002078000708D5207820F008002070474827
:103E500001992530FCF7C6FF607840070BD56078E4
:103E600020F004006070424A09F104011032A2F10E
:103E70002A00FCF76DFFA07840070CD5A07820F051
:103E80000400A070394802991A30FDF7CDF899ED79
:103E9000040A03F0ADFB364BCDF800A0103BA3F1B4
:103EA0003402A2F10C01A1F10C0003F0A7FA96ED87
:103EB000000A9FED311A88ED000AD5ED000A2C4B5F
:103EC000C6ED000A60EE811ADFED2C0A97ED002A9C
:103ED000443B40EE201A9FED2A0AA3F1240202F18E
:103EE0000C0101F1240042EE001AC5ED001A96ED16
:103EF000012A88ED012AD5ED011AC6ED011A61EEFD
:103F0000811A42EE201A97ED012A42EE001AC5ED01
:103F1000011AD6ED021AC8ED021A95ED022A86EDB5
:103F2000022A22EE011A01EEA01AD7ED020A00EED3
:103F3000801A9FED140A85ED021AFCF749FE0C4B1E
:103F4000203B1A1F111FA1F1100003F0E3F9E078E4
:103F500010F00100E0703FF46AAFE07820F001005B
:103F6000E070E07840F00200E07060E7B000002010
:103F7000307200206C0900205AF8F63F5D896EBF50
:103F8000D5A9183B6F12833A7FB5002415480094D9
:103F9000019402941249039401604FF40031C0E986
:103FA00001140461047680F820400F49C0E90A1426
:103FB0000125C561C46080F830404561FDF7A0FB74
:103FC00008B1FDF7F6FA1020CDE900056946029424
:103FD0000448FDF7EFFA002801D0FDF7EAFA7FBDAB
:103FE00000200140380800200100000F7FB50024A8
:103FF00015480094019402941249039401604FF40F
:104000000031C0E901140461047680F820400F49B2
:10401000C0E90A140125C561C46080F830404561DB
:10402000FDF76EFB08B1FDF7C4FA0820CDE90005E5
:10403000694602940448FDF7BDFA002801D0FDF757
:10404000B8FA7FBD00220140800800200100000F67
:104050000F4810B50D4901600321416000214FF464
:1040600010228160C0E903124FF400124261017610
:1040700041768176C17601774177FDF738FE0028D9
:1040800003D0BDE81040FDF794BA10BD00640040B5
:10409000C80800200F4810B50D4901600321416098
:1040A00000214FF410228160C0E903124FF4001286
:1040B0004261017641768176C17601774177FDF7DD
:1040C00016FE002803D0BDE81040FDF772BA10BDFF
:1040D00000680040F0080020074910B50548086056
:1040E0000846FDF776FF002803D0BDE81040FDF735
:1040F00060BA10BD0030024010000020254808B50D
:10410000016841F480010160016801F480010091BF
:10411000016841F4001101600068002200F4001001
:10412000009005210C20FEF7F3FB0C20FEF7E2FBCC
:10413000002205213920FEF7EBFB3920FEF7DAFBE0
:10414000002205213A20FEF7E3FB3A20FEF7D2FBDE
:10415000002205213B20FEF7DBFB3B20FEF7CAFBDC
:10416000002205214420FEF7D3FB4420FEF7C2FBCA
:10417000002205214520FEF7CBFB4520FEF7BAFBC8
:10418000002205214620FEF7C3FBBDE8084046207B
:10419000FEF7B0BB3038024010B596B01C22114972
:1041A0006846FCF732FA0021684603F0DDFA0E4C4F
:1041B0000C491C2220601C3107A8FCF726FA0021BC
:1041C00007A803F0D1FA0749A0601C2238310EA8D5
:1041D000FCF71BFA00210EA803F0C6FA606016B0C7
:1041E00010BD0000C8930008000000202DE9F04732
:1041F00086B014216846FCF764FA5B484FF000086B
:10420000016841F002010160016801F002010591BD
:10421000016841F040010160016801F04001059131
:10422000016841F001010160016801F0010105919F
:10423000016841F008010160016801F00801059181
:10424000016841F004010160016801F00401059179
:10425000016841F080010160016801F08001059171
:10426000016841F020010160016801F02001059121
:10427000016841F01001016000683C4F00F010003F
:104280000590012240213846FEF7C2F9DFF8E090A0
:10429000012210214846FEF7BBF9DFF8D8A0012221
:1042A00011465046FEF7B4F901244020CDE9000440
:1042B000022569463846CDE90245FEF7B1F80920E6
:1042C0004FF48816CDE90006694602943846FEF799
:1042D000A7F8CDE90048694648460294FEF7A0F8E1
:1042E0001027CDE9007469464846CDE90245FEF73E
:1042F00097F8CDE90076204F694602943846FEF7DC
:104300008FF820208DE8410169463846FEF788F88D
:104310000094694650460194CDE90245FEF780F8C5
:10432000002205210620FEF7F3FA0620FEF7E2FA46
:10433000002205210920FEF7EBFA0920FEF7DAFA40
:10434000002205210A20FEF7E3FA0A20FEF7D2FA3E
:10435000002205211720FEF7DBFA1720FEF7CAFA24
:1043600006B0BDE8F0870000303802400018024077
:104370000000024000040240000802400D4810B551
:104380000B4901600C49416000214FF4804281607B
:10439000C0E9031241618161C1610162FEF744F924
:1043A000002803D0BDE81040FDF703B910BD0000A0
:1043B000005C004018090020801A0600104810B563
:1043C0000E4901604FF48271416000210222816038
:1043D000C0E9031201224261520282613822C0E91F
:1043E0000721416281620A21C162FEF765FD002852
:1043F00003D0BDE81040FDF7DCB810BD003001402F
:104400006C09002010B588B01C216846FCF759F9EA
:10441000144813490024C0E900144FF6FF71C0E9A5
:10442000024104618461FEF79BFF08B1FDF7C1F80A
:104430000C48FFF73DF908B1FDF7BBF86020CDE966
:10444000000402940022694606480494FFF7CAF863
:1044500008B1FDF7AEF80348FFF740F808B010BD0B
:1044600000440140A40B002010B592B000240F942A
:104470001C2108A81094FCF724F920216846FCF7B9
:1044800020F920481E490160A721C0E9011444F623
:104490001F61C0E9031444618461FFF709F908B1A1
:1044A000FDF787F80F940FA916481094FEF710FF38
:1044B00008B1FDF77EF86020CDE908040A940B945A
:1044C0000C940D94002208A90E480E94FFF78AF868
:1044D00008B1FDF76EF800944FF40050CDE90440A8
:1044E000029401940394694606480794FEF7C5FEBA
:1044F00008B1FDF75EF80348FEF7F0FF12B010BDFB
:1045000000000140840A002010B58AB000240794FE
:104510001C2168460894FCF7D4F816481449C0E9F1
:10452000001442F2CF01C0E9024104618461FFF747
:10453000BFF808B1FDF73DF8079407A90D480894A6
:10454000FEF7C6FE08B1FDF734F86020CDE900049F
:1045500002940822694607480494FFF743F808B11B
:10456000FDF727F80348FEF7B9FF0AB010BD0000B9
:1045700000040040CC0A002010B58EB0002407943F
:10458000089409940A940B941C2168460C94FCF737
:1045900098F81E481C49C0E900144FF6FF71C0E9A5
:1045A000024104618461FEF7DBFE08B1FDF701F80A
:1045B0004FF48050079007A91448FEF721FF08B177
:1045C000FCF7F7FF1148FFF773F808B1FCF7F1FFAC
:1045D0000B940BA90D480C94FEF77AFE08B1FCF77A
:1045E000E8FF6020CDE900040294082269460748EC
:1045F0000494FEF7F7FF08B1FCF7DBFF0348FEF772
:104600006DFF0EB010BD000000080040140B00202C
:1046100010B58AB0002407941C2168460894FCF762
:1046200050F81D481B49C0E90014611EC0E9024151
:1046300004618461FFF73CF808B1FCF7BAFF079406
:1046400007A915480894FEF743FE08B1FCF7B1FF2F
:104650006020CDE900040294002269460E480494CB
:10466000FEF7C0FF08B1FCF7A4FF042269460A4820
:10467000FEF7B8FF08B1FCF79CFF08226946064820
:10468000FEF7B0FF08B1FCF794FF0348FEF726FFE2
:104690000AB010BD000C00405C0B00200C4810B5A7
:1046A0000A4901604FF4E1314160002181600C2230
:1046B000C160C0E904128161C161FFF7F1F900280E
:1046C00003D0BDE81040FCF774BF10BD00100140DE
:1046D000EC0B00200D4810B50B4901600C494160FE
:1046E00000214FF480628160C0E903120C22C0E90E
:1046F0000521C161FFF7D4F9002803D0BDE81040BF
:10470000FCF757BF10BD000000480040300C0020EF
:10471000A08601000C4810B50A4901604FF4E13150
:104720004160002181600C22C160C0E904128161F6
:10473000C161FFF7B5F9002803D0BDE81040FCF7D0
:1047400038BF10BD00140140740C0020FEE7FEE7E6
:1047500070B504001AD0D4ED101AC4ED111A94EDFE
:104760000F1A84ED101A84ED060A30EE600AC4EDCB
:10477000070A84ED0F0A94ED122AF0EEC00AF4EE57
:10478000C20AF1EE10FA04DD002503E09FED430AB2
:1047900070BD0125217804F120000646032902D0CE
:1047A000042946D077E0D4ED010A04F1280060EE38
:1047B000800AC4ED090AD4ED0A0AD4ED021A41EECA
:1047C000800AF7EE001AC4ED0A0AD4ED0D0AC4ED12
:1047D0000E0AD4ED0C0AC4ED0D0A70EE410AC4EDC8
:1047E0000C0A94ED130A94ED031A71EEC01A21EE2F
:1047F000211A61EE200A94ED141A40EE010AC4ED6C
:104800000B0A94ED050A01F0F5FF00EE105AD4ED05
:10481000090A94ED0A1AB8EE400A304640EE010A41
:1048200094ED0B0A30EE800A84ED080A94ED040A38
:104830002FE070EE410A94ED012A60EE820AC4ED89
:10484000090A94ED022A22EE002A84ED0A2AD4ED08
:104850000D2A70EE820AC4ED0E2AD4ED0C2AC4EDA6
:104860000D2AF0EE002A01EE620A30EE210A84EDF4
:104870000C0A94ED031A21EE000A84ED0B0A30EEC7
:10488000800AD4ED080A30EE200A84ED080A94ED7F
:10489000040A01F0AFFF94ED080A70BD00000000AB
:1048A00002EE903A00F1040CF8EE622AC0ED052AFF
:1048B00002EE902AF8EE622AC0ED042A017080ED23
:1048C000132A8CEC030A9FED0C0A80ED0E0A80ED92
:1048D0000D0A80ED0C0A80ED080A80ED0B0A80EDD0
:1048E0000A0A80ED090A80ED110A80ED100A80EDB8
:1048F0000F0AC0ED121A7047000000002DE9F74FB3
:10490000F84981B00868026822F001020260F648A6
:104910000268136823F00103136003E00A6822F0C1
:1049200001020A60EF4909680A68D207F6D103E07C
:10493000016821F001010160EB4800680168C907C6
:10494000F6D1EA48EA4AEB4BD0F84C90E84CE94DF6
:10495000E74EE84FDFF898E3DFF894C3D9F800009A
:10496000E449483A603318341835303E78374FF40C
:10497000006A0CF1300C704535D9884205D0904260
:1049800003D0984201D0A04201D1202026E0A842C5
:1049900005D0B04203D0B84201D0604501D15046A5
:1049A0001CE0DFF8508308F13008404511D0DFF8F3
:1049B0004083A8F1180840450BD0DFF8388308F190
:1049C0009008404505D0DFF8288308F148084045A5
:1049D00002D14FF4001001E04FF00060DFF81083C7
:1049E000A8F14C083AE0DFF80C8308F1A80840452C
:1049F00037D9884205D0904203D0984201D0A042D6
:104A000001D1202026E0A84205D0B04203D0B84210
:104A100001D0604501D150461CE0DFF8D88208F192
:104A20003008404511D0DFF8C882A8F11808404589
:104A30000BD0DFF8C08208F19008404505D0DFF8C0
:104A4000B08208F14808404502D14FF4001001E05F
:104A50004FF00060DFF89882A8F15008C8F8000015
:104A600074E0DFF8908208F14808404537D9884261
:104A700005D0904203D0984201D0A04201D120201D
:104A800026E0A84205D0B04203D0B84201D060452C
:104A900001D150461CE0DFF85C8208F13008404547
:104AA00011D0DFF84C82A8F1180840450BD0DFF890
:104AB000448208F19008404505D0DFF8348208F1BF
:104AC0004808404502D14FF4001001E04FF000606B
:104AD000DFF82082A8F11008C8F80C0036E0884200
:104AE00005D0904203D0984201D0A04201D12020AD
:104AF00026E0A84205D0B04203D0B84201D06045BC
:104B000001D150461CE0DFF8EC8108F13008404547
:104B100011D0DFF8DC81A8F1180840450BD0DFF890
:104B2000D48108F19008404505D0DFF8C48108F130
:104B30004808404502D14FF4001001E04FF00060FA
:104B4000DFF8B081A8F11008C8F80800D9F8000013
:104B50004FF4806B704535D9884205D0904203D020
:104B6000984201D0A04201D1102026E0A84205D0F1
:104B7000B04203D0B84201D0604501D158461CE094
:104B8000DFF8708108F13008404511D0DFF860810E
:104B9000A8F1180840450BD0DFF8588108F19008BB
:104BA000404505D0DFF8488108F14808404502D16A
:104BB0004FF4801001E04FF08060DFF83481A8F1FD
:104BC0004C083AE0DFF82C8108F1A808404537D9B5
:104BD000884205D0904203D0984201D0A04201D132
:104BE000102026E0A84205D0B04203D0B84201D040
:104BF000604501D158461CE0DFF8F88008F1300824
:104C0000404511D0DFF8E880A8F1180840450BD0E6
:104C1000DFF8E08008F19008404505D0DFF8D0804B
:104C200008F14808404502D14FF4801001E04FF0F0
:104C30008060DFF8BC80A8F15008C8F800007AE076
:104C4000DFF8B08008F14808404537D9884205D0E0
:104C5000904203D0984201D0A04201D1102026E01A
:104C6000A84205D0B04203D0B84201D0604501D17E
:104C700058461CE0DFF87C8008F13008404511D030
:104C8000DFF86C80A8F1180840450BD0DFF864808D
:104C900008F19008404505D0DFF8548008F1480835
:104CA000404502D14FF4801001E04FF08060DFF802
:104CB0004480A8F11008C8F80C003CE0884205D0F8
:104CC000904203D0984201D0A04201D110202CE0A4
:104CD000A84205D0B04203D0B84201D060450BD104
:104CE000584622E0C4090020240A00206C09002054
:104CF0005864024010600240DFF8688940450FD0D8
:104D0000DFF8648940450BD0DFF8588908F1600866
:104D1000404505D0DFF8508908F16008404502D1D0
:104D20004FF4801001E04FF08060DFF83889A8F17F
:104D30004008C8F80800D9F80000704532D9884208
:104D400005D0904203D0984201D0A04201D1082062
:104D500023E0A84205D0B04203D0B84201D060455C
:104D600002D14FF4007018E0DFF8F88840450FD00A
:104D7000DFF8F48840450BD0DFF8E88808F16008D8
:104D8000404505D0DFF8E08808F16008404502D1D1
:104D90004FF4002001E04FF00070DFF8CC88A8F15C
:104DA000340837E0DFF8BC8808F17808404534D98A
:104DB000884205D0904203D0984201D0A04201D150
:104DC000082023E0A84205D0B04203D0B84201D069
:104DD000604502D14FF4007018E0DFF88888404544
:104DE0000FD0DFF8848840450BD0DFF8788808F1D1
:104DF0006008404505D0DFF8708808F1600840453C
:104E000002D14FF4002001E04FF00070DFF8588825
:104E1000A8F13808C8F800006EE0DFF8488808F10B
:104E20001808404534D9884205D0904203D09842B2
:104E300001D0A04201D1082023E0A84205D0B04211
:104E400003D0B84201D0604502D14FF4007018E0A1
:104E5000DFF8108840450FD0DFF80C8840450BD0B4
:104E6000DFF8008808F16008404505D0DFF8F887D2
:104E700008F16008404502D14FF4002001E04FF0F6
:104E80000070DFF8E087A8F14008C8F80C0033E0B4
:104E9000884205D0904203D0984201D0A04201D16F
:104EA000082023E0A84205D0B04203D0B84201D088
:104EB000604502D14FF4007018E0DFF8A887404544
:104EC0000FD0DFF8A48740450BD0DFF8988708F1B2
:104ED0006008404505D0DFF8908708F1600840453C
:104EE00002D14FF4002001E04FF00070DFF874872A
:104EF000A8F14008C8F80800DFF86C87D9F800006E
:104F000008F118084FF4807E404531D9884205D019
:104F1000904203D0984201D0A04201D1042022E067
:104F2000A84205D0B04203D0B84201D0604501D1BB
:104F3000704618E0DFF82C8740450FD0DFF828874F
:104F400040450BD0DFF81C8708F16008404505D0CC
:104F5000DFF8148708F16008404502D14FF4802043
:104F600001E04FF08070DFF80087A8F1340836E0E8
:104F7000DFF8F08608F17808404533D9884205D03B
:104F8000904203D0984201D0A04201D1042022E0F7
:104F9000A84205D0B04203D0B84201D0604501D14B
:104FA000704618E0DFF8BC8640450FD0DFF8B886C1
:104FB00040450BD0DFF8AC8608F16008404505D0CD
:104FC000DFF8A48608F16008404502D14FF4802044
:104FD00001E04FF08070DFF89086A8F13808C8F83B
:104FE00000006CE0DFF87C8608F11808404533D9F2
:104FF000884205D0904203D0984201D0A04201D10E
:10500000042022E0A84205D0B04203D0B84201D02B
:10501000604501D1704618E0DFF8488640450FD062
:10502000DFF8448640450BD0DFF8388608F1600889
:10503000404505D0DFF8308608F16008404502D1D0
:105040004FF4802001E04FF08070DFF81886A8F15F
:105050004008C8F80C0032E0884205D0904203D0E6
:10506000984201D0A04201D1042022E0A84205D0FC
:10507000B04203D0B84201D0604501D1704618E07B
:10508000DFF8E08540450FD0DFF8DC8540450BD0E8
:10509000DFF8D08508F16008404505D0DFF8C88505
:1050A00008F16008404502D14FF4802001E04FF044
:1050B0008070DFF8B085A8F14008C8F80800DFF874
:1050C000A885D9F8000008F118084FF48039404548
:1050D00030D9884205D0904203D0984201D0A042F6
:1050E00001D1012021E0A84205D0B04203D0B8424E
:1050F00001D0604501D1402017E0DFF868854045C8
:105100000FD0DFF8648540450BD0DFF8588508F1F3
:105110006008404505D0DFF8508508F1600840453B
:1051200001D1484601E04FF48000DFF83C85A8F14A
:10513000340835E0DFF82C8508F17808404532D98D
:10514000884205D0904203D0984201D0A04201D1BC
:10515000012021E0A84205D0B04203D0B84201D0DE
:10516000604501D1402017E0DFF8F88440450FD0BA
:10517000DFF8F48440450BD0DFF8E88408F16008DC
:10518000404505D0DFF8E08408F16008404501D1D2
:10519000484601E04FF48000DFF8CC84A8F13808DD
:1051A000C8F800006AE0DFF8BC8408F11808404540
:1051B00032D9884205D0904203D0984201D0A04213
:1051C00001D1012021E0A84205D0B04203D0B8426D
:1051D00001D0604501D1402017E0DFF888844045C8
:1051E0000FD0DFF8848440450BD0DFF8788408F1D5
:1051F0006008404505D0DFF8708408F1600840453C
:1052000001D1484601E04FF48000DFF85884A8F14E
:105210004008C8F80C0031E0884205D0904203D025
:10522000984201D0A04201D1012021E0A84205D03E
:10523000B04203D0B84201D0604501D1402017E010
:10524000DFF8208440450FD0DFF81C8440450BD0A8
:10525000DFF8108408F16008404505D0DFF80884C5
:1052600008F16008404501D1484601E04FF4800054
:10527000DFF8F083A8F14008C8F80800FB48DFF821
:10528000E883806C009008F118080068404531D927
:10529000884205D0904203D0984201D0A04201D16B
:1052A000202022E0A84205D0B04203D0B84201D06D
:1052B000604501D1504618E0DFF8A88340450FD083
:1052C000DFF8A48340450BD0DFF8988308F160082D
:1052D000404505D0DFF8908308F16008404502D1D1
:1052E0004FF4001001E04FF00060DFF87C83A8F17C
:1052F000340836E0DFF86C8308F17808404533D98C
:10530000884205D0904203D0984201D0A04201D1FA
:10531000202022E0A84205D0B04203D0B84201D0FC
:10532000604501D1504618E0DFF8388340450FD082
:10533000DFF8348340450BD0DFF8288308F160089C
:10534000404505D0DFF8208308F16008404502D1D0
:105350004FF4001001E04FF00060DFF80C83A8F17B
:105360003808C8F800006CE0DFF8F88208F1180887
:10537000404533D9884205D0904203D0984201D0AD
:10538000A04201D1202022E0A84205D0B04203D0A3
:10539000B84201D0604501D1504618E0DFF8C48220
:1053A00040450FD0DFF8C08240450BD0DFF8B48213
:1053B00008F16008404505D0DFF8AC8208F16008CC
:1053C000404502D14FF4001001E04FF00060DFF8DB
:1053D0009482A8F14008C8F80C0032E0884205D059
:1053E000904203D0984201D0A04201D1202022E077
:1053F000A84205D0B04203D0B84201D0604501D1E7
:10540000504618E0DFF85C8240450FD0DFF8588244
:1054100040450BD0DFF84C8208F16008404505D0CC
:10542000DFF8448208F16008404502D14FF40010D3
:1054300001E04FF00060DFF82C82A8F14008C8F8C6
:1054400008000098DFF820A200680AF1180A504509
:1054500031D9884205D0904203D0984201D0A04271
:1054600001D1102022E0A84205D0B04203D0B842BA
:1054700001D0604501D1584618E0DFF8E881404589
:105480000FD0DFF8E48140450BD0DFF8D88108F178
:105490006008404505D0DFF8D08108F1600840453C
:1054A00002D14FF4801001E04FF08060DFF8B88146
:1054B000A8F1340836E0DFF8AC8108F178084045FF
:1054C00033D9884205D0904203D0984201D0A042FF
:1054D00001D1102022E0A84205D0B04203D0B8424A
:1054E00001D0604501D1584618E0DFF87881404589
:1054F0000FD0DFF8748140450BD0DFF8688108F1E8
:105500006008404505D0DFF8608108F1600840453B
:1055100002D14FF4801001E04FF08060DFF8488145
:10552000A8F13808C8F800006CE0DFF8388108F10D
:105530001808404533D9884205D0904203D098429C
:1055400001D0A04201D1102022E0A84205D0B042F3
:1055500003D0B84201D0604501D1584618E0DFF8C9
:10556000048140450FD0DFF8008140450BD0DFF8C3
:10557000F48008F16008404505D0DFF8EC8008F1C0
:105580006008404502D14FF4801001E04FF0806088
:10559000DFF8D080A8F14008C8F80C0032E088425B
:1055A00005D0904203D0984201D0A04201D11020F2
:1055B00022E0A84205D0B04203D0B84201D06045F5
:1055C00001D1584618E0DFF89C8040450FD0DFF845
:1055D000988040450BD0DFF88C8008F1600840458A
:1055E00005D0DFF8848008F16008404502D14FF40F
:1055F000801001E04FF08060DFF86880A8F140087B
:10560000C8F8080000980068504536D9884205D08F
:10561000904203D0984201D0A04201D1082029E055
:10562000A84205D0B04203D0B84201D0604502D1B3
:105630004FF400701EE0DFF82C8040450FD0DFF8FB
:10564000288040450BD0DFF81C8008F160084045F9
:1056500005D0DFF8148008F16008404508D14FF408
:10566000002007E040600240406402406C090020D6
:105670004FF00070DFF8E88439E0DFF8E884404557
:1056800038D9884205D0904203D0984201D0A04238
:1056900001D1082027E0A84205D0B04203D0B8428B
:1056A00001D0604502D14FF400701CE0DFF8B484F3
:1056B000A8F17808404511D0DFF8A48408F1340837
:1056C00040450BD0DFF89C84A8F11808404505D070
:1056D000DFF88C8408F19408404502D14FF4002093
:1056E00001E04FF00070DFF87884A8F10408C8F8F2
:1056F000000076E0DFF86C84A8F16008404538D9F6
:10570000884205D0904203D0984201D0A04201D1F6
:10571000082027E0A84205D0B04203D0B84201D00B
:10572000604502D14FF400701CE0DFF83884A8F126
:105730007808404511D0DFF8288408F13408404546
:105740000BD0DFF82084A8F11808404505D0DFF819
:10575000108408F19408404502D14FF4002001E084
:105760004FF00070DFF8FC83A8F1B808C8F80C000F
:1057700037E0884205D0904203D0984201D0A04241
:1057800001D1082027E0A84205D0B04203D0B8429A
:1057900001D0604502D14FF400701CE0DFF8C483F3
:1057A000A8F17808404511D0DFF8B48308F1340837
:1057B00040450BD0DFF8AC83A8F11808404505D070
:1057C000DFF89C8308F19408404502D14FF4002093
:1057D00001E04FF00070DFF88C83A8F1B808C8F83A
:1057E000080000980068504533D9884205D090429F
:1057F00003D0984201D0A04201D1042026E0A84263
:1058000005D0B04203D0B84201D0604501D1704606
:105810001CE0DFF85083A8F17808404511D0DFF88C
:10582000408308F1340840450BD0DFF83883A8F1F5
:105830001808404505D0DFF8288308F19408404552
:1058400002D14FF4802001E04FF08070DFF8108328
:1058500038E0DFF81083404537D9884205D09042C0
:1058600003D0984201D0A04201D1042026E0A842F2
:1058700005D0B04203D0B84201D0604501D1704696
:105880001CE0DFF8E082A8F17808404511D0DFF88D
:10589000D08208F1340840450BD0DFF8C882A8F167
:1058A0001808404505D0DFF8B88208F19408404553
:1058B00002D14FF4802001E04FF08070DFF8A08229
:1058C000A8F10408C8F8000074E0DFF89882A8F195
:1058D0006008404537D9884205D0904203D09842AD
:1058E00001D0A04201D1042026E0A84205D0B04258
:1058F00003D0B84201D0604501D170461CE0DFF80A
:105900006482A8F17808404511D0DFF8548208F18C
:10591000340840450BD0DFF84C82A8F11808404508
:1059200005D0DFF83C8208F19408404502D14FF4DD
:10593000802001E04FF08070DFF82882A8F1B808DD
:10594000C8F80C0036E0884205D0904203D0984257
:1059500001D0A04201D1042026E0A84205D0B042E7
:1059600003D0B84201D0604501D170461CE0DFF899
:10597000F481A8F17808404511D0DFF8E48108F1FE
:10598000340840450BD0DFF8DC81A8F11808404509
:1059900005D0DFF8CC8108F19408404502D14FF4DE
:1059A000802001E04FF08070DFF8B881A8F1B808DE
:1059B000C8F8080000980068504529D9884205D0E9
:1059C000904203D0984201D0A04201D101201DE0B5
:1059D000A84205D0B04203D0B84201D0604501D101
:1059E000402013E05F49783988420BD05C4934315C
:1059F000884207D05B491839884203D0584994310E
:105A0000884201D1484601E04FF4800054492DE01E
:105A1000DFF8508140452BD9884205D0904203D011
:105A2000984201D0A04201D101201DE0A84205D03A
:105A3000B04203D0B84201D0604501D1402013E00C
:105A40004849783988420BD045493431884207D0DB
:105A500044491839884203D041499431884201D1E0
:105A6000484601E04FF480003D49091F08605CE0B2
:105A7000DFF8F080A8F1600840452BD9884205D0B6
:105A8000904203D0984201D0A04201D101201DE0F4
:105A9000A84205D0B04203D0B84201D0604501D140
:105AA000402013E02F49783988420BD02C493431FB
:105AB000884207D02B491839884203D028499431AD
:105AC000884201D1484601E04FF480002549B839A9
:105AD000C8602AE0884205D0904203D0984201D0A5
