:020000040800F2
:10000000785C0020290300086F5100087143000844
:100010008D50000899100008D96600080000000003
:10002000000000000000000000000000690200085D
:10003000F916000800000000C5020008BD600008B5
:100040004303000843030008430300084303000878
:100050004303000843030008430300084303000868
:10006000430300084117000847170008430300082E
:10007000491600084303000843030008430300082F
:10008000430300084303000843030008A9100008C5
:100090009D10000843030008430300084D170008A3
:1000A0004303000843030008430300084303000818
:1000B0004303000843030008430300084303000808
:1000C00043030008430300084303000843030008F8
:1000D000430300084303000843030008C166000807
:1000E00043030008430300084303000843030008D8
:1000F00043030008430300084303000843030008C8
:1001000043030008430300084303000843030008B7
:1001100043030008430300088D61000843030008FF
:100120004303000843030008430300084303000897
:10013000430300084303000843030008C1100008FC
:10014000B5100008430300084303000843030008F8
:100150004303000843030008430300084303000867
:100160004303000843030008430300084303000857
:100170004303000843030008430300080000000095
:10018000430300084303000800F002F800F05CF8A5
:100190000AA090E8000C82448344AAF10107DA45E2
:1001A00001D100F051F8AFF2090EBAE80F0013F0D8
:1001B000010F18BFFB1A43F001031847F4D90000E0
:1001C00014DA00000A444FF0000C10F8013B13F061
:1001D000070408BF10F8014B1D1108BF10F8015BA0
:1001E000641E05D010F8016B641E01F8016BF9D193
:1001F00013F0080F1EBF10F8014BAD1C0C1B09D1EA
:100200006D1E58BF01F801CBFAD505E014F8016B5B
:1002100001F8016B6D1EF9D59142D6D370470000ED
:100220000023002400250026103A28BF78C1FBD8FF
:10023000520728BF30C148BF0B6070471FB50CF094
:100240007CFC1FBD10B510BD00F06AFA1146FFF727
:10025000F5FF09F0DFF900F088FA03B4FFF7F2FFC9
:1002600003BC00F0EDFA00002C4B19680868B0E8F8
:10027000F04F80F30988BFF36F8F4FF0000080F3D9
:10028000118870470000000008480068006880F38B
:1002900008884FF0000080F3148862B661B6BFF39F
:1002A0004F8FBFF36F8F00DF00BF00BF08ED00E08E
:1002B000DFF80C00016841F470010160704700BF75
:1002C00088ED00E0EFF30980BFF36F8F134B1A68DE
:1002D0001EF0100F08BF20ED108A20E9F04F1060CB
:1002E00009B44FF0500080F31188BFF34F8FBFF374
:1002F0006F8F0AF071FA4FF0000080F3118809BC8B
:1003000019680868B0E8F04F1EF0100F08BFB0EC95
:10031000108A80F30988BFF36F8F70473400002084
:10032000EFF30580704700000948804709480047FF
:10033000FEE7FEE7FEE7FEE7FEE7FEE7FEE7FEE795
:10034000FEE7FEE704480549054A064B70470000F2
:100350007D6100088901000878560020785C002043
:1003600078580020785800209FED1A1AF5EE000A00
:1003700040EE010ABDEEE00AF5EEC00A10EE100AEA
:10038000F1EE10FA38BF401E00EE100A1349F7EEE6
:10039000001AB8EEC00A30EEC00ADFED0F0A20EEF8
:1003A000200AFCEEC00A10EE900AC0F3080000EE2E
:1003B000900A01EB8000F8EE600A90ED011A70EEF1
:1003C000600A90ED000A71EEE01A21EE800A00EE5C
:1003D000810A704783F9223E0000004400D10008E2
:1003E000DFED190AB5EEC00A60EE200ABDEEE01A94
:1003F00011EE100AF1EE10FA38BF401E00EE100A9E
:100400001349F7EE001AB8EEC00A30EEC00ADFED6D
:100410000F0A60EE200ABCEEE00A10EE100AC0F3EC
:10042000080000EE100A01EB8000B8EE400A90EDE3
:10043000011A70EEC00A90ED000A71EEE01A21EE8A
:10044000800A00EE810A704783F9223E00000044D2
:1004500000D1000853EA020C00F069802DE9F04B4E
:100460004FF00006002B1FBFB3FA83F503FA05F423
:1004700024FA05F65E4012BF1643B2FA82F502FA7C
:1004800005F4C5F120051EBF22FA05FC44EA0C0460
:10049000203556EA044C4FEA144418BF641C4FF050
:1004A00000084FF00009904271EB030C39D300298A
:1004B00019BFB1FA81F701FA07F6B0FA80F700FA2E
:1004C00007F6C7F120071EBF20FA07FC46EA0C0614
:1004D0002037B6FBF4FCA7EB0507103F07F01F0B16
:1004E000CBF120060CFA0BFB2CFA06F644BFB34600
:1004F0000026202FA4BF5E464FF0000B5BEA060CDF
:1005000008BF4FF0010B19EB0B09ABFB027C48EB6A
:100510000608C01B06FB02CC0BFB03CC71EB0C01E5
:10052000C1E70B46024641464846BDE8F08B13B58D
:100530004FF000004FF00001AFF30080BDE81C4019
:100540007047032A40F2308010F0030C00F0158051
:1005500011F8013BBCF1020F624498BF11F801CBC6
:1005600000F8013B38BF11F8013BA2F1040298BF2B
:1005700000F801CB38BF00F8013B11F0030300F095
:100580002580083AC0F0088051F8043B083A51F839
:1005900004CBA0E80810F5E7121D5CBF51F8043B3E
:1005A00040F8043BAFF30080D20724BF11F8013BB1
:1005B00011F801CB48BF11F8012B24BF00F8013B13
:1005C00000F801CB48BF00F8012B704710B5203A66
:1005D000C0F00B80B1E81850203AA0E81850B1E8FC
:1005E0001850A0E81850BFF4F5AF5FEA027C24BFB2
:1005F000B1E81850A0E8185044BF18C918C0BDE8A9
:1006000010405FEA827C24BF51F8043B40F8043B71
:1006100008BF7047D20728BF31F8023B48BF11F826
:10062000012B28BF20F8023B48BF00F8012B704780
:100630004FF000020429C0F0128010F0030C00F00B
:100640001B80CCF1040CBCF1020F18BF00F8012B89
:10065000A8BF20F8022BA1EB0C0100F00DB85FEA57
:10066000C17C24BF00F8012B00F8012B48BF00F823
:10067000012B70474FF0000200B513469446964692
:10068000203922BFA0E80C50A0E80C50B1F12001A5
:10069000BFF4F7AF090728BFA0E80C5048BF0CC053
:1006A0005DF804EB890028BF40F8042B08BF7047B1
:1006B00048BF20F8022B11F0804F18BF00F8012B23
:1006C000704770477047704710B500F009F8006830
:1006D00010BD10B5044600F003F8046010BD000022
:1006E00000487047145600201FB584B000200A9CB3
:1006F00006AB04AA02A90094AFF3008018B1DDE9AB
:10070000020108B010BD0348204000F037F8002077
:100710000146F6E70000207C004870471456002090
:100720007546FFF7F9FFAE4605006946534620F0CF
:100730000700854618B020B5FFF704FEBDE820404D
:100740004FF000064FF000074FF000084FF0000B8D
:1007500021F00701AC46ACE8C009ACE8C009ACE840
:10076000C009ACE8C0098D46704710B50446AFF328
:1007700000802046BDE81040FFF76FBD10B500F0C7
:1007800009F8BDE81040AFF30080002801D000F068
:1007900057B8704710B5022803D0410103D50DA109
:1007A00012E0002010BD010101D50FA10CE0C10035
:1007B00001D511A108E0810001D512A104E040009B
:1007C00001D513A100E0002115A000F03FF80120A1
:1007D00010BD0000496E76616C6964204F706572CF
:1007E0006174696F6E000000446976696465204237
:1007F00079205A65726F00004F766572666C6F776C
:1008000000000000556E646572666C6F7700000032
:10081000496E657861637420526573756C7400006D
:100820005349474650453A2041726974686D657472
:10083000696320657863657074696F6E3A200000A3
:1008400001491820ABBEFEE72600020070B5054640
:100850000C460A2000E06D1C00F011F835B1287834
:100860000028F8D102E0641C00F009F814B12078E7
:100870000028F8D1BDE870400A20AFF3008008B529
:1008800069468DF800000320ABBE08BD704705F037
:100890005FBF06F061BAFFF767BDF0EE400AF5EE04
:1008A000C00AF1EE10FA02DDB0EE600A7047B1EE58
:1008B000600AFBE7002803D09FED020A80ED000AE2
:1008C0007047000000000000002803D0B3EE060AC5
:1008D00080ED000A7047000070B52DED0C8B84B0E0
:1008E00006460C4615469FED990AF0EE408A9FEDAC
:1008F000970AB0EE409A9FED950AF0EE40BA9FED50
:10090000930AF0EE409A9FED910AB0EE40AA0EB124
:1009100004B11DB904B0BDEC0C8B70BD8C48FFF761
:10092000C9FF8C48FFF7D0FF8A48D0ED000A9FED41
:100930008A1A60EE810AB0EE600A00F025F9F0EE46
:10094000408A28EEA80AF0EE408A8248D0ED000ADC
:10095000B0EE001A60EE810A9FED7F1A60EE810A08
:10096000B0EE600A00F010F9B0EE409A29EE090AE4
:10097000B0EE409ADFED790AB7EE000A00EEA80A61
:10098000DFED770A00EEC90ADFED760A20EE200AD5
:10099000754880ED000A6E4890ED000ADFED730A9D
:1009A00080EE201AB7EE000A31EE000A20EE000AAF
:1009B0006D48D0ED000A80EE801A6D4880ED001A77
:1009C00094ED000AB5EEC00AF1EE10FA0DD194EDE7
:1009D000010AB5EEC00AF1EE10FA06D194ED020A52
:1009E000B5EEC00AF1EE10FA46D09FED580AB0EE0F
:1009F000408A0020019002900390D4ED000A60EE3E
:100A0000A00A94ED011AD4ED011A41EE210A94EDE9
:100A1000021AD4ED021A41EE210AB0EE600A00F08B
:100A2000A9F8B0EE408A94ED000A20EE080A8DED98
:100A3000010A94ED010A20EE080A8DED020A94EDF8
:100A4000020A20EE080A8DED030ADDED010AF1EE3F
:100A5000600AB0EE600AFFF71AFFF0EE409A9DEDD3
:100A6000031AF0EE410A9DED021AB0EE410AFFF7BB
:100A700010FFB0EE40AA07E09FED340AF0EE409A76
:100A80009FED320AB0EE40AA95ED000AB5EEC00A1D
:100A9000F1EE10FA0DD195ED010AB5EEC00AF1EEB6
:100AA00010FA06D195ED020AB5EEC00AF1EE10FA81
:100AB0003CD0B0EE690A00F067F8B0EE408AB0EEC4
:100AC000690AFFF7E8FEB0EE40DAB0EE4A0A00F03D
:100AD0005BF8F0EE40AAB0EE4A0AFFF7DCFEB0EE9B
:100AE00040BA28EE2A0AD5ED010A20EE200AD5EDFB
:100AF000000A0DEE200A68EE0B0A95ED021A00EED0
:100B0000810AB0EE40CA95ED010A20EE0B0AD5ED40
:100B1000020A0AEEE00AF0EE40CAF0EE6C0AB0EE0D
:100B20004C0AFFF7B6FEF0EE40BA03E09FED070A6D
:100B3000F0EE40BAB0EE4A1AF0EE690AB0EE6B0A77
:100B4000304608F023F800BFE4E600000000000093
:100B50007C0100208001002035FA8E3CC1BFAD3BF6
:100B60009DF8C5362F7C1C4184010020506CC24A80
:100B70008801002010B507F0CCF9B7EE001AC1EEDD
:100B8000000AB0EE600A10BDFFF72ABC2DE9F04163
:100B90002DED028B9AB00546B0EE408A0E46174600
:100BA0009846002017901890199014901590169060
:100BB0004DB146B13FB1B8F1000F04D0B5EEC08AD7
:100BC000F1EE10FA05D100201AB0BDEC028BBDE8A1
:100BD000F08196ED000A8DED170A96ED010A8DED74
:100BE000180A96ED020A8DED190A97ED000A8DEDAF
:100BF000140A97ED010A8DED150A97ED020A8DEDA5
:100C0000160A17AA14A9284607F012FE402104A8C4
:100C1000FFF730FD00200090019002900390002427
:100C200017A904A809F0B4FB00BF30E004A800EB4A
:100C3000041090ED000AD5ED000A20EE200A04A869
:100C400000EB0410D0ED010A95ED011A00EE810AC7
:100C500004A800EB0410D0ED020A95ED021A00EE94
:100C6000810A04A800EB0410D0ED030A95ED031AE5
:100C700000EE810A20EE080AF0EE000A80EE201A4B
:100C8000684600EB840080ED001A601CC4B2042C9E
:100C9000CCDB002410E005EB840090ED000A6846F0
:100CA00000EB8400D0ED000A30EE200A05EB840052
:100CB00080ED000A601CC4B2042CECDB284609F06D
:100CC0007BFA012080E70000BDEEC01A4FF4B4713A
:100CD00011EE100AF8EEC11A90FBF1F201FB1200BE
:100CE00001EE100A30EE610AB8EEC11A31EE001AB8
:100CF000BDEEE00A10EE100AF8EEC01A90FBF1F219
:100D000001FB120000EE100A70EEE11A0C49B8EE79
:100D1000C00A30EE210A31EE400A9FED0A1A10EEA9
:100D2000100A884202DD30EE410A06E010EE100A99
:100D30000549884201D930EE010A30EE800A704739
:100D4000000034430000B443000034C301221021EA
:100D5000014801F007BE00000000024000221021FF
:100D6000014801F0FFBD0000000002407047000094
:100D700001221146014801F0F5BD000000040240C7
:100D800000220121014801F0EDBD000000040240F5
:100D9000704708F077BC00F065B910B5FFF7E6FFC3
:100DA000FFF7F6FF08F044F808B1802402E007F0EE
:100DB000ABFF044608F00AFA10B144F0400010BD41
:100DC00008F096F9204310BD2DE9FC4107460020AC
:100DD00016460D4600900190FFF7C0FF922000F0EC
:100DE000BDF806226946122000F09AF8FFF7AEFF20
:100DF0009DF801009DF80010000200B2084300EECB
:100E0000100A464CB8EEC00AD4ED000A20EE200AC3
:100E100085ED000A9DF803009DF80210000200B263
:100E2000084300EE100AD4ED000AB8EEC00A20EE26
:100E3000200A85ED010A9DF805009DF804100002C6
:100E400000B2084300EE100AB8EEC00A20EE200AF5
:100E500085ED020AFFF794FF08226946002000F0A2
:100E60005FF8FFF785FF9DF800000F2830D19DF84F
:100E700003009DF80210000200B2084300EE100AC1
:100E8000D4ED010AB8EEC00A20EE200A87ED000A70
:100E90009DF805009DF80410000200B2084300EE22
:100EA000100AD4ED010AB8EEC00A20EE200A87ED40
:100EB000010A9DF807009DF80610000200B20843E1
:100EC00000EE100AB8EEC00A20EE200A87ED020AF2
:100ED000FFF744FFA22000F041F8022269462220D9
:100EE00000F01EF8FFF732FF9DF800009DF801109A
:100EF000C00040EA5110B0F5806F01DBA0F5006042
:100F000000EE100AB4EE001AF8EEC00AB3EE070ABB
:100F100000EE810A86ED000ABDE8FC81D0000020C9
:100F200070B514460D4640F0800000F017F806E05A
:100F3000552000F013F8641E05F8010BE4B2002CF4
:100F4000F6D170BD10B50C4640F0800000F006F8F8
:100F5000552000F003F8207010BD000001B582B0EC
:100F60004FF47A700090012301AA02A9024802F00E
:100F7000CDFB9DF804000EBDD808002010B50C462E
:100F8000FFF7ECFF2046BDE81040FFF7E7BF000089
:100F900000B58BB000200121CDE90601059000903D
:100FA00001900290039004900E20CDE9081069464C
:100FB000054800F053FE044801F0C6F9022102483A
:100FC00000F0CCFD0BB000BD3408002000B58BB0A4
:100FD00001220E2100200792CDE905100390049014
:100FE000CDE908210090019002906946054800F083
:100FF00035FE044801F0A8F90221024800F0AEFDD8
:101000000BB000BD5C080020064801680648B1FB33
:10101000F0F2064802704FF47A72B1FBF2F14160CF
:10102000704700003000002040420F00B000002058
:1010300070B54FF0E024002265690949A369496849
:101040004843A1699942FCD002D2A3EB010302E01C
:10105000A5EB010633441A440B468242F1D370BD1E
:10106000B000002070B54FF0E02400226569094906
:10107000A36909784843A1699942FCD002D2A3EB45
:10108000010302E0A5EB010633441A440B468242F9
:10109000F1D370BDB0000020FEE70000014800F071
:1010A000D8BE000034080020014800F0D2BE000085
:1010B00034080020014800F0CCBE00005C0800208D
:1010C000014800F0C6BE00005C080020084908681E
:1010D000807948B1022807D0032805D0042803D01E
:1010E000052801D0012801D181F870047047000063
:1010F000C44C0020024900EBC00001EB80007047A7
:101100000C49002070B51D4C002000BF00EB001101
:1011100001EB401104EB8101401CD1F86021C0B209
:10112000B2F9042002EB4202520000EE102A042819
:10113000B8EEC00A81ED880AE8D3114DE868B5F928
:101140001010B0F9000003F0D5FF00EE100AD5ED45
:10115000060A0C48B8EEC00A20EE200A80ED1D0AEF
:10116000616891ED120A80ED610A91ED130A80ED3C
:10117000620A91ED140A80ED600A70BDC44C002033
:1011800050520020C45000202DE9F04100F5806746
:101190002DED028B1546D7ED1D0A9FED168A0E46E2
:1011A00080EE880AFFF71CF9134C84ED000AD7ED96
:1011B0001D0A80EE880AFFF7D7F884ED010AD7ED03
:1011C0002F0AD7ED301A20EE801AD4ED000A00EE77
:1011D000A11A86ED001A97ED301A21EE000A97ED5C
:1011E0002F1A00EEC10A85ED000ABDEC028BBDE8A6
:1011F000F0810000333365426801002010B50446D9
:101200002DED028BB0EE418AB0EE601AF0EE400A8E
:10121000C0ED220AB0EE410A80ED230A08F096FAEA
:10122000D4ED0B0AB0EE480AC4ED240A84ED258AF9
:1012300004F1440008F08AFA94ED1C0ABDEC028B1C
:1012400010BD00002DED028B82B09FED628ADFF8A9
:10125000888108F5B27908F5806400BFFFF752FF76
:10126000FFF734FF98F870044646062837D2DFE8C7
:1012700000F03630032416243068F0EE480A90ED72
:10128000030A84ED2F0A90ED040A544884ED300AD5
:1012900094ED1D0A08F05AFA84ED310A1FE09FED23
:1012A000500A84ED310A306890ED030A84ED2F0A6C
:1012B00090ED040A84ED300A11E0306890ED030AE5
:1012C00084ED2F0A90ED040A84ED300A90ED050AB2
:1012D000E2E784ED2F8A84ED308A84ED318A3E483E
:1012E00004F0B2FA0025B04608EB850606F58066E4
:1012F00005EB8501D6ED320A08EB0117C7ED1A0A96
:10130000386AB0F9040000EE100A07F12400B8EEC4
:10131000C00A08F01BFABDEEC00A10EE100AA7F8CA
:101320006C0005EB051000EB451196ED360A08EB55
:101330008107484687ED7F0A96ED3E0A97ED881AA9
:10134000F1EE400A96ED360AFFF758FFBDEEC00AEF
:101350006D1CEDB210EE100A042DA7F80002C3D3E5
:1013600098F87004454698B90020014600EB8002C9
:1013700005EB0212A2F86C1000EB001202EB401217
:1013800005EB8202401CC0B2A2F800120428EDD383
:10139000B5F95C11B5F90C01CDE90001B5F9BC3026
:1013A000B5F96C204FF400710E4803F0B9FEB5F9A1
:1013B0004C14B5F98803CDE90001B5F9C432B5F98B
:1013C000002240F2FF11074803F0AAFE0A2008F0AD
:1013D00059F943E700000000C44C00203C510020B4
:1013E0000000C8435C0800202DE9F0412DED088B7A
:1013F00000F0D8F84E4C206003F062FA60600020E4
:1014000084F870049FED4B0A84ED020A9FED4A0AAE
:1014100084ED030A84ED040A9FED480A40F2BE60A1
:1014200084ED070AA4F808021420A4F8CC0241F6BF
:101430006D60A4F8900340F62A50A4F854044FF0CD
:10144000FF3084F8440584F85405012084F86405CD
:101450009FED3B9ADFED3B9ADFED3BAA9FED3B8A88
:10146000DFED3B8A9FED3BAA9FED3BBADFED3BBA38
:1014700084F8740500263046FFF73CFE06EB860133
:1014800004EB01173862304600F070F806EB0611E5
:1014900001EB461104EB8105B0EE002AC5F86001AE
:1014A00085ED839AC5ED849AC5ED85AA07F12400E0
:1014B000F0EE481AB2EE041AF0EE680AB0EE4A0AEC
:1014C000032108F0FFF905F5B270B0EE482AF0EEFE
:1014D000481AB3EE041AF0EE480AB0EE4B0A0321A4
:1014E00008F0F0F905F5D470B0EE482AF0EE481A8D
:1014F000B2EE041AF0EE680AB0EE6B0A032108F0AF
:10150000E1F9761CF6B2042EB5D3F0EE481ABDEC24
:10151000088BB0EE612AB1EE041A0321BDE8F04158
:10152000DFED0F0A9FED0F0A0F4808F0CBB900005E
:10153000C44C0020B87EBC430080AF43EC317843FC
:101540000000343D00003443000034C300000000BC
:1015500000803B4500007A460000FA430060EA46FE
:1015600000004842000096433C510020024900EB35
:10157000C00001EB800070479C49002010B503F0CB
:1015800069FE0749022208600120087188714871CC
:10159000CA71002281F820204872887210BD0000B4
:1015A000844B002000487047844B0020224F234E7C
:1015B000DFF88C80234C4FF0030901252068B0F937
:1015C0001400B84201DA35700CE000F1DB01B1F52E
:1015D000DB7F02D886F8009004E0B0F5DC7F01DD07
:1015E0000220307015483178401C03F037FE207916
:1015F00020B1012810D0022814D110E098F8090079
:10160000012806D028B125710420607184F8069065
:1016100008E06571A57105E003F028FE02E00020F6
:101620006071A071074816222C302168FEF789FFEF
:10163000142008F027F8C1E748FEFFFFC000002093
:1016400050520020844B0020014800F00BBF0000E6
:101650004C0A002001681823CAB2103AB2FBF3F218
:10166000054B6FF30901032A9B5CC36500D9091D73
:101670008165084670470000B4D0000810B50146E7
:1016800000208B698A6A4FF0C07453B1B3F5005FD4
:1016900015D072B1012A0CD0022A0AD0032A09D12E
:1016A00004E01AB1012A06D0022A03D1C96AC9018D
:1016B00000D5012010BDC96AA142FAD010BD002A90
:1016C000F7D0012AF2D0022AF3D0032AF3D010BDBA
:1016D00030B50468256825F48025256004686360BA
:1016E0008368402B036803D099600068C26030BDF6
:1016F0009A600068C16030BD704710B504462DED9A
:10170000028BB0EE418AB0EE601AF0EE400AC0EDF6
:10171000220AB0EE410A80ED230A08F017F8D4ED52
:101720000B0AB0EE480AC4ED240A84ED258A04F1C0
:10173000440008F00BF894ED1C0ABDEC028B10BDC0
:10174000082001F003B8102001F000B8202000F0BC
:10175000FDBF72B6FEE7000000487047744A0020E3
:1017600000487047984A002010B52DED048BFFF714
:1017700019FF394C206003F0A3F86060012060720B
:1017800000F0E4F9C4F8D80000F0E4F9E0604FF4A8
:101790001670208241F2F2709FED300AA4F8DC004E
:1017A00084ED060A84ED390A9FED2D0A9FED2E8AFD
:1017B00084ED070A9FED2B0ADFED2C8A84ED080AE1
:1017C000B3EE070A84ED3A0ABBEE070A84ED3B0A42
:1017D000B0EE482AF0EE481AB2EE0E1AF0EE480AC1
:1017E000B0EE680A032104F13C0008F06BF89FEDAD
:1017F000219AB0EE482AF0EE481AB2EE0E1ADFED4A
:101800001C0AB0EE490A032104F1800008F05AF8DE
:10181000DFED199AB0EE482A9FED181AF0EE691A1A
:10182000F0EE480AB0EE680A032104F5847008F06F
:1018300049F8B0EE482AF0EE691AB0EE490ABDEC5C
:10184000048B04F5A670B3EE041ABDE81040DFED7A
:101850000C0A032108F036B8505200200000343D35
:101860000000B4420000B4C2000000000000FA44CE
:1018700000803B450060EA46CDCCCC3D00005C4298
:101880000080BB4510B5384C02202DED028B84F84A
:10189000240084F8F000E068B4F91010B0F90000FA
:1018A00003F028FC00EE100AD4ED060AB8EEC00AD8
:1018B00020EE200A84ED0A0AD4F8D800B4F9DC102E
:1018C000B0F9000003F016FC00EE100AD4ED390A5E
:1018D000B8EEC00A20EE200A84ED3D0AE068B4F9B3
:1018E0001010B0F9000003F005FC00EE100AD4ED72
:1018F000060A6068B8EEC00A9FED1C8A60EE200AF6
:1019000090ED020A04F13C0020EE081A94ED0A0A58
:1019100000F0B0F8BDEEC00A10EE100AA4F8D40032
:10192000D4F8D800B4F9DC10B0F9000003F0E2FB01
:1019300000EE100AD4ED390A6068B8EEC00A60EE15
:10194000200A90ED010A04F5847020EE081A94ED47
:101950003D0A00F08FF8BDEEC00A10EE100AA4F8A0
:10196000A001BDEC028B10BD50520020E12E65425B
:1019700010B53C4C01202DED028B84F82400022090
:1019800084F8F0009FED360AD4ED0D0AFFF79CF9BC
:1019900084ED0A0A2068D4ED3D0A90ED061A70EE37
:1019A000810A9FED311AC4ED3D0AD0ED070A606847
:1019B00000EE810AD0ED140AFFF786F984ED0A0AD9
:1019C0002068D4ED3D0A90ED061A70EE810AC4ED50
:1019D0003D0A94ED3B1AF4EEC10AF1EE10FA06D975
:1019E00094ED3A1AF4EEC10AF1EE10FA01DB84ED3F
:1019F0003D1A60689FED1D8AD0ED020A20EE881A1C
:101A0000D0ED140A17483C3000F034F8BDEEC00A9F
:101A100010EE100AA4F8D400D4F8D800B4F9DC1001
:101A2000B0F9000003F066FB00EE100AD4ED390AAD
:101A30006068B8EEC00A60EE200A90ED010A0C481A
:101A400020EE081A94ED3D0A00F014F8BDEEC00A2D
:101A500010EE100AA4F8A001BDEC028B10BD00002E
:101A600000000000505200200000C842E12E6542F4
:101A70005853002010B504462DED028BB0EE418A7C
:101A8000B0EE601AF0EE400AC0ED220AB0EE410A54
:101A900080ED230A07F05AFED4ED0B0AB0EE480A97
:101AA000C4ED240A84ED258A04F1440007F04EFEBB
:101AB00094ED1C0ABDEC028B10BD00001CB5204C3F
:101AC000002540F2FF16607AA0722068407920B1AC
:101AD000012805D0042802D003E0657201E002204D
:101AE0006072607A012802D0022805D102E0FFF777
:101AF000C9FE01E0FFF73CFF607A90B910483C3026
:101B000007F0C6FE0E48803007F0C2FE0D4807F011
:101B1000BFFE0C48443007F0BBFEA4F8D450A4F834
:101B2000A05100950195B4F9D430B4F9A021314603
:101B3000054803F0F5FA0A2007F0A4FDC3E700000A
:101B400050520020585300203408002000487047AD
:101B50002C4A002000487047504A002090F820206E
:101B6000012A07D0022A05D0416A41F4802141624E
:101B700001207047006842690A43426100207047B3
:101B8000F0B590F820500468A468012D05D0022D0E
:101B900003D0416A41F480215DE014F0406F01D12F
:101BA000E50055D5C4F30164022C03D9416A41F420
:101BB000000150E00125A5401D608D684FF4C07301
:101BC0009DB1CE6835434E6845EAC605066803EB0D
:101BD0000417F5514FF4C275076805EB04150E693B
:101BE0007E51097D012905D009E00E88CD6845EABE
:101BF0004655EBE701684E5946F480764E5111790F
:101C0000D579567941EA056195792D0445EA06258D
:101C100029434FF4C676056806EB0416A9511178DE
:101C2000D57841EA0561957852782D0445EA02227B
:101C300011434FF4C475026805EB04155151006857
:101C400003EB0411425842F0010242500020F0BD63
:101C5000416A41F4001141620120F0BD10B590F8D5
:101C60002020012A07D0022A05D0416A41F48021B0
:101C70004162012010BD3B48D0F8002242F0010231
:101C8000C0F80022D0F8002222F47C52C0F80022D2
:101C9000D0F800224B6A42EA0322C0F800220A7DF3
:101CA00002F01F0301229A40D0F81C329343C0F87F
:101CB0001C32CB69B3B9D0F80C329343C0F80C3264
:101CC0008C894B6864F31F434C6900EBC404C4F86F
:101CD00040320C890B6864F31F434C6900EBC40469
:101CE000C4F84432CB69012B16D1D0F80C3213431F
:101CF000C0F80C320C884B6864F31F434C6900EB4E
:101D0000C404C4F840320C89CB6864F31F434C69A7
:101D100000EBC404C4F844328B69002BD0F80432C1
:101D20000ED01343C0F804320B69002BD0F81432E4
:101D300008D01343C0F81432096A012904D008E01E
:101D40009343EFE79343F5E7D0F81C121143C0F833
:101D50001C12D0F8001221F00101C0F8001200207E
:101D600010BD000000640040704730B590F820407E
:101D7000012C05D0022C03D0416A41F480215DE0A2
:101D80000468002955D02469A40754D04FF4D874AE
:101D9000056804EB01142D5915F0040595600568DC
:101DA0002D594ED0ED08556005682C5904F00204F9
:101DB000D4604FF4DA74056804EB01142D5905F072
:101DC0000F05156105682D59C5F30725956105684F
:101DD0002C59240C54614FF4DC72046802EB01129C
:101DE000A4581C700468A458240A5C700468A458A1
:101DF000240C9C700468A258120EDA704FF4DE7244
:101E0000046802EB0112A4581C710468A458240A47
:101E10005C710468A458240C9C710468A258120ECA
:101E2000DA71006881B1016941F02001016100208F
:101E300030BDE468A8E7416A41F400114162012025
:101E400030BD6D0D1560AFE7C16841F02001C16084
:101E5000EDE72DE9F05F0546006800244669D0F8FB
:101E600004908768D0F80CB0D0F810A0D0F8188093
:101E7000F10748D0F90714D001218160B80703D5D4
:101E8000284600F08EFA0CE0780702D54FF4006483
:101E900007E0380702D54FF4805402E0284600F0EE
:101EA0007FFAF80516D529684FF480708860B80568
:101EB00003D5284600F077FA0CE0780502D544F403
:101EC000005407E0380502D544F4804402E0284677
:101ED00000F068FAF80316D529684FF4803088605E
:101EE000B80303D5284600F060FA0CE0780302D569
:101EF00044F4004407E0380302D544F4803402E09F
:101F0000284600F051FA300707D55FEACB6004D5C8
:101F10002968102044F40074C86070074FF0080767
:101F200007D55FEA0B7004D52868C760284600F023
:101F3000A9F9B00706D52868C068800702D02846EE
:101F400000F0A2F9700607D55FEACA6004D52968D7
:101F5000102044F480640861B00607D55FEA0A7077
:101F600004D528680761284600F0EAF9F00606D58E
:101F700028680069800702D0284600F0E2F9B00323
:101F800008D55FEAC96005D5296810204860284651
:101F900000F0D8F9F00307D55FEA097004D5286886
:101FA0004760284600F002FA300446D55FEA4970DF
:101FB00040D5F00504D55FEAC87001D044F00104B3
:101FC000B00504D55FEA887001D544F002047005BD
:101FD00004D55FEA487001D544F00404300529D5E2
:101FE00018F0700F26D008F07000402815D006DCDD
:101FF000102809D020280AD0302816D10AE050280D
:102000000ED0602811D10EE044F008040DE044F039
:1020100010040AE044F0200407E044F0400404E027
:1020200044F0800401E044F480742868816921F060
:1020300070018161296804204860002C05D0686A1D
:10204000204368622846FFF78FFEBDE8F09F70B519
:10205000040003D094F8200010B104E0012070BD0A
:10206000204600F081F82068016841F0010101601C
:1020700000F07EFC0546052604E000F079FC401BDC
:102080000A2811D820684068C007F6D02068016887
:1020900021F00201016000F06BFC05460BE000F04E
:1020A00067FC401B0A2806D9606A40F40030606271
:1020B00084F82060D2E7206840688007EFD4207E53
:1020C0000128206801683DD021F080010160607E18
:1020D00001282068016838D021F040010160A07E0D
:1020E00001282068016833D021F020010160E07EE2
:1020F0000128206801682ED041F010010160207F86
:1021000001282068016829D021F008010160607F62
:1021100001282068016824D021F004010160D4E97D
:1021200002010843D4E90412114308436168491EBF
:1021300008432168C86100206062012084F8200003
:10214000002070BD41F08001C0E741F04001C5E7CB
:1021500041F02001CAE721F01001CFE741F008016A
:10216000D4E741F00401D9E7F0B587B00446142163
:102170006846FEF77FFA3E4B3E48DFF8F0E019680C
:10218000D4F800C03B4A032502260927103000245A
:10219000491CF4452AD11960012907D1016841F091
:1021A00000710160006800F000700590106840F058
:1021B000080010601068CDE9005600F00800CDE975
:1021C000047069462C48CDE9024500F0CBFA0022A4
:1021D0000521132000F006FF132000F0F5FE002279
:1021E0000521142000F0FEFE14203AE0DFF88CE018
:1021F000F44538D1D0F800C04CF0806CC0F800C075
:10220000D0F800C001290CF0806CCDF814C0196022
:1022100007D1016841F000710160006800F00070B2
:102220000590106840F002001060106802AB00F0EA
:10223000020005906020CDE9000683E8B000694601
:102240000F4800F08FFA002205213F2000F0CAFE5F
:102250003F2000F0B9FE00220521402000F0C2FE20
:10226000402000F0B1FE07B0F0BD00000064004067
:102270002000002030380240000C0240006800407E
:10228000000402407047000000B5284A016889B088
:10229000914227D16B4602AA0021FFF766FD029901
:1022A0002348A1F2012108290BD2DFE801F004063E
:1022B0003B0C0F121518006A00E0006F694602F02F
:1022C000E7FE09B000BDD0F81001F7E7D0F86001D3
:1022D000F4E7D0F82402F1E7D0F8E802EEE7D0F80E
:1022E000AC03EBE7134A9142EBD16B4602AA002103
:1022F000FFF73BFD029A10491048A2F20122062A7C
:10230000DFD2DFE802F0090C0F030407D9E7D1F8A8
:10231000D800D3E7C868D1E7D0F87801CEE7D0F885
:10232000C801CBE7D0F8C000C8E700000068004053
:10233000C44C00200064004050520020F4530020A0
:10234000704770477047000070B5044690F8200051
:10235000012804D0606A40F40020606218E0022086
:1023600084F820002068016821F00101016000F07C
:10237000FFFA05460EE000BF00F0FAFA401B0A28FB
:1023800008D9606A40F400306062052084F82000BB
:10239000012070BD20684068C007EDD1606270BD4B
:1023A00070477047704770477047704770472DE916
:1023B000F0410446876D00F0DBFA064694F83500DC
:1023C0000025022806D08020606584F83450012062
:1023D000BDE8F0812068016821F0160101602068E5
:1023E000416921F080014161206C08B9A06C20B1E5
:1023F0002068016821F0080101602068016821F06F
:10240000010101600CE000F0B3FA801B052807D938
:1024100020206065032084F8350084F83450D7E725
:1024200020680068C007EED194F85C103F20884017
:10243000B860012084F8350084F834500020C7E7E4
:1024400090F83510022903D08021416501207047A2
:10245000052180F835100068016821F00101016054
:10246000002070472DE9F84304464FF00009CDF8ED
:10247000009063484FF41651A56D0068B0FBF1F76A
:102480002E6894F85C10082000FA01F131420FD058
:1024900021680A6852070BD50A6822F004020A6014
:1024A00094F85C108840A860606D40F001006065A1
:1024B00094F85C104FF0010808FA01F0304208D09F
:1024C00021684969090604D5A860606D40F00200E2
:1024D000606594F85C1004208840304208D0216880
:1024E0000968890704D5A860606D40F00400606544
:1024F00094F85C1010208840304218D02168096898
:10250000090714D5A86020680168490304D500684C
:10251000000308D5A16C07E00168C90503D4016870
:1025200021F008010160216C09B12046884794F828
:102530005C1020208840304231D021680968C906EB
:102540002DD5A86094F8350005282068016806D0CC
:10255000490347D5006800031DD4616C1CE021F0DD
:10256000160101602068416921F080014161206C01
:1025700008B9A06C20B12068016821F00801016051
:1025800094F85C103F208840A86084F8358084F877
:102590003490216D1FE0E16B09B120468847606DE2
:1025A00000282BD0606DC00714D0052084F83500BA
:1025B0002068016821F0010101600098401C009032
:1025C000B84203D820680068C007F6D184F8358087
:1025D00084F83490E16C002910D001B02046BDE8A9
:1025E000F04308470168C905D5D4016821F01001FE
:1025F000016084F8358084F83490CCE7BDE8F88336
:10260000300000202DE9F041044600F0B1F9064603
:102610005CB1022084F83500002584F8345020682D
:10262000016821F0010101600DE00120BDE8F081A9
:1026300000F09EF9801B052805D920206065032045
:1026400084F83500F2E720680068C007F0D12268FE
:10265000116820480140D4E901031843D4E9033646
:102660003343184363691843A3691843E369184364
:10267000236A18430843616A042903D1D4E90B1380
:1026800019430843106020684069666A20F007011A
:1026900030460E43012704280CD1A06A0643E06AA5
:1026A00040B12046FEF7EAFF20B14020606584F883
:1026B0003570BAE7206846612046FEF7CBFF94F8F4
:1026C0005C203F2191408160656584F83570002071
:1026D000ACE700003F8010F070B5044690F834007D
:1026E000002501280CD0012084F8340094F83560CE
:1026F0000020012E06D084F834000225284670BD43
:10270000022070BD022684F8356060652046FEF721
:10271000DFFF2068016841F001010160EEE7000081
:1027200070B5094E0546002456F824104868A842A2
:1027300004D1087A052801D1C8688047641CE4B236
:102740000E2CF1D370BD0000084B0020044910B5D9
:102750000A68024202D00860FFF7E2FF10BD0000E5
:10276000143C01402DE9F84FDFF8BCA100220125FF
:1027700003264FF00F090AF1040BAAF1040E00BF63
:102780000B6805FA02F42340A34270D10F7907F0D9
:102790000307012F01D0022F16D187684FEA4208A4
:1027A00006FA08FC27EA0C07D1F80CC00CFA08FC62
:1027B0004CEA070CC0F808C04768A7430C79C4F37B
:1027C000001494403C4344600C79E443A4070AD0CD
:1027D000C4684FEA420C06FA0CF7BC438F6807FA4C
:1027E0000CF72743C7600C7904F00304022C12D1C4
:1027F000D40800EB840CDCF820405707FF0E09FAE0
:1028000007F824EA0804D1F8108008FA07F848EA23
:102810000408CCF8208004684FEA420C06FA0CF752
:10282000BC430F7907F0030707FA0CF7274307604B
:102830004C6814F4403F70D03C4C276847F4804704
:102840002760246822F0030704F480440094384C85
:1028500007EB040CDCF8084897074FEA177809FAE9
:1028600008F7BC43334FB84202D1002724E054E0BC
:10287000314FB84201D101271EE0304FB84201D19B
:10288000022719E02E4FB84201D1032714E02D4F43
:10289000B84201D104270FE02B4FB84201D10527E0
:1028A0000AE02A4FB84201D1062705E0284FB84276
:1028B00001D1072700E0082707FA08F72743CCF8DB
:1028C0000878DAF800405746D1F804C09C435FEA24
:1028D000CC2C00D51C433C60DBF800405F46D1F8AF
:1028E00004C09C435FEA8C2C00D51C433C60DEF89E
:1028F00000407746D1F804C09C435FEA8C3C00D589
:102900001C433C60084F083F3C68D1F804C09C431E
:102910005FEACC3C00D51C433C60521C102AFFF4FB
:102920002FAFBDE8F88F0000083C0140443802405A
:102930000030014000000240000402400008024054
:10294000000C024000100240001402400018024037
:10295000001C0240426921EA02030A4043EA0241A4
:10296000816170470AB1816170470904FBE700008B
:1029700001488068704700002400002070B5040002
:1029800025D094F83D00002520B984F83C5020461D
:1029900000F04CFA242084F83D002068016821F002
:1029A000010101602068016841F400410160206874
:1029B000016821F40041016000F000FC4D4A6168AB
:1029C000914201D84C4900E04C49884201D2012093
:1029D00070BD4B492368B0FBF1F15E6826F03F06FD
:1029E0000E435E606368934206D94FF49673594371
:1029F0004FF47A73B1FBF3F12368491C1E6A26F089
:102A00003F06314319626168914210D84900401E67
:102A1000B0FBF1F2521CC2F30B02042A01D20420D3
:102A200022E0B0FBF1F0401CC0F30B001CE0A268F8
:102A3000F2B301EBC10303EB0116431EB3FBF6F344
:102A40005B1C43F480431B0549D092B301EBC102E8
:102A500002EB0111401EB0FBF1F0401CC0F30B0073
:102A600040F4804040F400402168CA694CF6FF738E
:102A70009A431043C861D4E90710014320680268F3
:102A800022F0C00211430160D4E903010143206830
:102A9000826848F2FF339A4311438160D4E905010B
:102AA00008432168CA6822F0FF021043C86001E0B1
:102AB0000EE016E02068016841F001010160256424
:102AC000202084F83D00256384F83E50002070BD2E
:102AD00001EB4106431EB3FBF6F35B1CB3E7012099
:102AE000C2E701EB4101401EB0FBF1F0401CC0F316
:102AF0000B00B7E7A086010080841E0000093D009E
:102B000040420F002DE9FF4F83B09A46DDE911974F
:102B100093460446DDF84080FFF72AFF054694F807
:102B20003D00202870D119230122714920460095CB
:102B300001F02EFD0028F5D194F83C00012863D067
:102B4000012084F83C0020680168C90703D10168AE
:102B500041F0010101602068016821F40061016019
:102B6000222084F83D00402084F83E0000262664A0
:102B7000C4F82480A4F82A90608D20855D48E06226
:102B8000CDE9007553465A462046049901F008FCE9
:102B900000287CD1208DD0B1012821D002282068C6
:102BA00024D0416980690090208D032869D80128CC
:102BB0002BD0514902283B464FF00002009559D0D6
:102BC0008846204601F0E4FC002860D13CE0206803
:102BD000416981690091016841F40071016077E009
:102BE0002068016821F480610160F0E7016821F448
:102BF000806101602068016841F400610160206823
:102C000041698069009063E06FE02A4639462046BA
:102C100001F03DFD98BB20680069616A08704EE0D4
:102C20002068016841F40071016020680069616AF0
:102C30000870606A401C6062218D491E2185618D8B
:102C4000491E6185216838E02068016821F48061AF
:102C5000016020680069616A0870606A401C6062F7
:102C6000208D401E2085608D401E60853B460022E1
:102C700041460095204601F08BFC00B9D0E706E004
:102C8000FFE72A463946204601F001FD18B1012030
:102C900007B0BDE8F08F20680069616A0870606A5B
:102CA000401C6062218D491E2185618D491E618510
:102CB00021684A69D24352070AD409690170606ADF
:102CC000401C6062208D401E2085608D401E608506
:102CD000208D00287FF468AF202084F83D0084F820
:102CE0003E6084F83C600020D2E70220D0E700007C
:102CF000020010000000FFFF040001002DE9FF4F5B
:102D000083B09A46DDE9119793460446DDF840808A
:102D1000FFF72EFE054694F83D0020287FD11923A9
:102D2000012240492046009501F032FC002876D16E
:102D300094F83C00012872D0012084F83C002068FF
:102D40000168C90703D1016841F0010101602068F1
:102D5000016821F400610160212084F83D004020D9
:102D600084F83E0000262664C4F82480A4F82A9043
:102D7000608D20852C48E062CDE9007553465A46A7
:102D80002046049901F08AFB70B930E02A463946A2
:102D9000204601F0AFFC58B1206C042804D1206813
:102DA000016841F400710160012007B0BDE8F08FB7
:102DB000606A216800780861606A401C6062218D49
:102DC000491E89B22185628D521E6285226853692F
:102DD000DB435B070BD469B100781061606A401C6B
:102DE0006062208D401E2085608D401E6085208D94
:102DF0000028CBD12A463946204601F0A3FB002803
:102E0000CAD154F83D0B016841F4007101602020E3
:102E100004F81E09E67766770020C6E7FFE7022080
:102E2000C3E70000020010000000FFFFF0B587B00C
:102E3000044614216846FDF71DFC1A4920688842A3
:102E40002DD11948016841F004010160016801F0C9
:102E500004010591016841F001010160006812243C
:102E600000F0010005904FF40070012503260427AF
:102E70008DE8F10069460D48FFF774FC28028DE8E3
:102E8000F10069460A48FFF76DFC074810300168F9
:102E900041F400010160006800F40000059007B0F3
:102EA000F0BD0000005C00403038024000080240E5
:102EB0000000024002488168027811448160704736
:102EC000240000200B4810B5016841F40071016036
:102ED000016841F480610160016841F48071016022
:102EE000032000F09FF8002000F006F800F050F8F2
:102EF000002010BD003C024030B505461F4887B099
:102F00000024016841F010010160006806A900F08A
:102F10001000009001A800F031F90498A8B100F069
:102F20004DF940001649174AB0FBF1F11648491E09
:102F3000026040F2E732C0E90324C0E90114846171
:102F400000F04AFD040003D015E000F037F9E9E78E
:102F50000D4800F09FFD04000DD1362000F034F83C
:102F6000102D07D200222946362000F03BF80748F2
:102F7000056000E0012407B0204630BD4038024023
:102F800040420F0000100040AC0A00202800002042
:102F90000C4882B0016841F480410160006800F48F
:102FA000804000900748001F016841F08051016097
:102FB0000068002200F0805000900F21901E02B0A7
:102FC00000F010B844380240002809DB00F01F026E
:102FD000012191404009800000F1E020C0F800117B
:102FE00070470000F0B40E4B1B680C46C3F302237D
:102FF000C3F10705042D00D90425191D072901D2A5
:10300000002300E0DB1E012606FA05F1491E2140DF
:1030100099409E40761E16403143F0BC03F088BBB9
:103020000CED00E0064900F0070208684FF6FF03C8
:10303000184040EA0220034A10430860704700002D
:103040000CED00E00000FA052DE9F0470E46050002
:1030500065D0DFF81481D8F80000F7B200F007005F
:10306000B04207D288F80070D8F8000000F00700DE
:10307000B04254D128683D4C810712D5400703D592
:10308000206840F4E05020602878000703D52068CD
:1030900040F4604020602068A96820F0F0000843F8
:1030A00020602878C0072DD0304968680839012889
:1030B00012D0022813D0032811D0096889070029EB
:1030C0002DDA216821F0030101432160FFF750FC54
:1030D000814641F2883A0EE009688903EFE7096802
:1030E0008901ECE7FFF744FCA0EB0901514502D947
:1030F0000320BDE8F0872068696800F00C00B0EBA1
:10310000810FEFD1D8F80010404601F00701B1421D
:1031100007D90770006800F00700B04201D0012015
:10312000E7E72878400705D52068E96820F4E050F3
:10313000084320602878000706D52068296920F414
:10314000604040EAC100206000F058F82168084A59
:10315000C1F30311515CC840064908600648006885
:10316000FFF7CAFE0020C4E7003C024008380240D6
:10317000BCD0000830000020280000200F22026090
:103180000C4A136803F003034360136803F0F00371
:103190008360136803F4E053C36012684FF4E05394
:1031A00003EAD20202610448006800F007000860E8
:1031B0007047000008380240003C024004480549BE
:1031C00000680968044AC1F38221515CC840704715
:1031D0003000002008380240CCD0000804480549DF
:1031E00000680968044AC1F34231515CC840704725
:1031F0003000002008380240CCD00008154810B537
:10320000006810F00C02144813D01449042A0FD09F
:10321000082A0ED10F4C241F2268236802F03F02B7
:103220005B0207D52068C0F38810A0FB010106E00F
:10323000084610BD2168C1F38811A1FB00010023DD
:10324000FDF708F92168C1F30141491C4900B0FBB1
:10325000F1F010BD083802400024F400001BB70054
:103260002DE9F84F04006ED02078DFF84C93C007AA
:10327000A9F104054AD009F104000168C1F38101F4
:10328000012908D00068C0F3810002280AD1D9F8CA
:103290000000400206D52868800337D56068002802
:1032A000E1D033E06068B0F5803F10D0B0F5A02FDA
:1032B000286810D020F480302860286820F480200E
:1032C00028606068A8B1FFF753FB06460DE0286848
:1032D00040F48030F4E740F480202860F7E700BF36
:1032E000FFF746FB801B642873D828688003F7D556
:1032F0000CE0FFF73DFB064605E000BFFFF738FB9B
:10330000801B6428F0D828688003F7D42078DFF881
:10331000AC8280074FF0000A3ED5A748001D016827
:1033200011F00C0F08D00068C0F3810002280BD107
:10333000D9F80000400207D42868800716D5E06855
:10334000012800D112E033E1E068B8B10120C8F8EB
:103350000000FFF70DFB064605E000BFFFF708FB86
:10336000801B0228C0D828688007F7D52868216903
:1033700020F0F80040EAC10028600DE0C8F800A085
:10338000FFF7F6FA064604E0FFF7F2FA801B022880
:103390001FD828688007F7D42078000722D5864FE9
:1033A00087486169703771B101210160FFF7E0FA68
:1033B000064604E0FFF7DCFA801B022809D83868CB
:1033C0008007F7D50EE0C0F800A0FFF7D1FA064657
:1033D00005E082E0FFF7CCFA801B02287DD8386830
:1033E0008007F7D42078400768D5DFF8CCB10027F4
:1033F0000BF13C0BDBF80000C0000BD4DBF8001035
:1034000041F08051CBF80010DBF80000012700F0FC
:10341000805000906B4E3068C00510D4306840F486
:1034200080703060FFF7A4FA009005E0FFF7A0FA83
:103430000099401A022850D83068C005F6D55E4E73
:10344000A0686C3601280FD00528306810D020F015
:1034500001003060306820F004003060A068B8B12E
:10346000FFF786FA00900FE0306840F00100F4E7C3
:1034700040F004003060F7E7FFF77AFA0099411A4C
:1034800041F28830814266D830688007F4D50EE07A
:10349000FFF76EFA009007E0FFF76AFA0099411A09
:1034A00041F28830814256D830688007F4D42FB179
:1034B000DBF8001021F08051CBF80010A069C8B3F0
:1034C0003D49091D0968C1F3810102294AD002283A
:1034D000504607D0C8F8600000E03CE0FFF748FA2B
:1034E00004463BE04746C8F86000FFF741FA06464D
:1034F00005E000BFFFF73CFA801B02282BD82868A4
:103500008001F7D4D4E907010843A16A2E4A49088B
:1035100002EB0141626A41EA8211084394F82C10DF
:1035200040EA0161C9F8001001203866FFF720FA6F
:10353000044606E03EE000BFFFF71AFA001B02282F
:1035400009D828688001F7D534E000BFFFF710FAEA
:10355000001B022802D90320BDE8F88F28688001EB
:10356000F4D427E00128F7D0D9F80000E26900F48C
:10357000800191421CD1226A00F03F01914217D193
:1035800047F6C071626A0140B1EB821F10D1A26A96
:103590004FF0FF3300F4403103EB5202B1EB024F26
:1035A00006D194F82C1000F07060B0EB016F01D0E0
:1035B0000120D1E70020CFE7043802400000474255
:1035C000800E4742007000400000FFFF70B504000D
:1035D00009D0606A002540B125616561A56294F853
:1035E000510040B10CE0012070BD6068B0F5827FF1
:1035F000F4D0E561F2E784F85050204600F044F83A
:10360000022084F851002068016821F04001016027
:10361000A088218900F4827001F404410843A18943
:1036200001F400610843217C01F002010843217D7F
:1036300001F001010843218B01F400710843217F4F
:1036400001F03801084394F8201001F0800108438C
:10365000218D01F40051084321680860A06904210C
:1036600001EA104094F8241001F010010843216889
:1036700048602068C16921F40061C161656501206D
:1036800084F85100002070BDF0B587B004461421C5
:103690006846FCF7EFFF1949206888422CD118488A
:1036A000016841F480510160006800F48050059089
:1036B00013481438016841F002010160016801F00B
:1036C00002010591016841F00101016000680224D6
:1036D00000F00100059018200125032605278DE83C
:1036E000F10069460748FFF73DF880208DE8F100BA
:1036F00069460548FFF736F807B0F0BD00300140D5
:103700004438024000040240000002402DE9F84F16
:10371000044690F8500000270A9E1D4692468B46AC
:103720004FF0010901280ED0012084F85000FFF766
:103730001FF9804694F85100616801280CD0B1F55A
:10374000827F07D102E00220BDE8F88FA16809B9A5
:10375000042801D00227C2E0BBF1000F27D0BAF144
:10376000000F24D01DB394F85100042802D0052086
:1037700084F8510000206065C4F838A0E587A5876B
:10378000C4F830B0E586A5862064606420680168CE
:10379000490603D4016841F040010160E068B0F5DA
:1037A000006F606805D0E8B3012D46D07FE00127A7
:1037B00095E008B1012D39D1206B21680088C860DF
:1037C000206B801C2063E08E401EE0862EE0206887
:1037D000816889070FD5E18E69B1B9F1010F0AD16E
:1037E000216B0988C160206B801C2063E08E401E25
:1037F000E0864FF0000920688168C9070CD0E18F8E
:1038000051B1C068A16B0880A06B801CA063E08FE1
:10381000401EE0874FF00109FFF7AAF8A0EB08006F
:10382000B04200E009E001D3701C50D1E08E0028C6
:10383000CDD1E08F0028CAD13FE0206B216800780D
:103840000873206B401C2063E08E401EE0862EE053
:103850002068816889070FD5E18E69B1B9F1010F40
:103860000AD1216B09780173206B401C2063E08E24
:10387000401EE0864FF0000920688168C9070CD01F
:10388000E18F51B1C068A16B0870A06B401CA063B0
:10389000E08F401EE0874FF00109FFF769F8A0EBC9
:1038A0000800B04202D3701C01D010E07EB1E08E5F
:1038B0000028CDD1E08F0028CAD1424631462046AB
:1038C00001F086FD28B101272020606507E003276D
:1038D00005E0A06818B92068C168806800900120E0
:1038E00084F85100002084F8500038462CE77047D7
:1038F000704710B590F83C20012A22D0012280F8B0
:103900003C20CA688C6822F4407222434C6822F43E
:10391000806222430C6822F4006222430C6922F484
:10392000805222434C6922F400522243C969002389
:1039300022F480420A4301684A6480F83C30002047
:1039400010BD022010BD000070B590F83C20012A87
:1039500032D0012480F83C40022280F83D200368E8
:103960005A689D6822F070060A6832435A60134B09
:1039700002689A4214D0B2F1804F11D0104B9A4293
:103980000ED0104B9A420BD00F4B9A4208D00F4BDF
:103990009A4205D00E4B9A4202D00E4B9A4204D165
:1039A000496825F080031943916080F83D4000216B
:1039B00080F83C10084670BD022070BD0000014038
:1039C0000004004000080040000C004000040140DA
:1039D000004001400018004010B5040003D094F8E6
:1039E0003D0010B107E0012010BD002084F83C002C
:1039F000204600F01FF8022084F83D00211D2068B9
:103A000002F0CAFB012084F8460084F83E0084F8E6
:103A10003F0084F8400084F8410084F8420084F8B4
:103A2000430084F8440084F8450084F83D000020F9
:103A300010BD000008B5134A01681348914207D130
:103A4000016841F001010160006800F001000BE035
:103A50000E4A91420AD10C48001F016841F008014A
:103A60000160006800F00800009008BD084A91421B
:103A7000FBD1016841F400310160006800F40030BE
:103A8000F2E700000000014044380240000C004012
:103A90000044014090F83D10012901D001207047F9
:103AA000022180F83D100168CA6842F00102CA6034
:103AB00000681149884214D0B0F1804F11D00F49ED
:103AC00088420ED00E4988420BD00E49884208D059
:103AD0000D49884205D00D49884202D00C498842E0
:103AE00004D1816801F00701062903D0016841F083
:103AF0000101016000207047000001400004004007
:103B000000080040000C004000040140004001405B
:103B10000018004070B5044690F83C0000250128CC
:103B200017D0012684F83C60022084F83D0020680C
:103B3000826822F0770222F47F428260086850286F
:103B400038D00DDC20284FD005DC90B3102811D1DF
:103B50004AE0022070BD302846D040280AD13BE020
:103B600060282FD070280DD0B0F5805F03D0B0F55D
:103B7000005F12D0012584F83D60002084F83C00ED
:103B8000284670BDCB68D1E90121206802F075FBA1
:103B90002068816841F0770109E0CB68D1E9012113
:103BA000206802F06AFB2068816841F480418160EE
:103BB000E1E719E0CA684968206802F033FC502147
:103BC000206806E0CA684968206802F03CFC602171
:103BD000206802F05CFBCEE7CA684968206802F002
:103BE00021FC40212068F4E7226801461046F0E7F6
:103BF000704770B50446006801694FF00005C9437D
:103C0000890715D4C168C943890711D4E91E016128
:103C100001202077206880698007204602D0FFF7C6
:103C2000E7FF04E000F0DAF8204600F06CF92577B1
:103C300020680169C943490717D4C168C9434907C6
:103C400013D46FF00401016102202077206880699D
:103C500010F4407F204602D0FFF7CAFF04E000F0D6
:103C6000BDF8204600F04FF9257720680169C94367
:103C7000090716D4C168C943090712D46FF00801B7
:103C80000161042020772068C0698007204602D0A7
:103C9000FFF7AEFF04E000F0A1F8204600F033F992
:103CA000257720680169C943C90617D4C168C9438B
:103CB000C90613D46FF01001016108202077206835
:103CC000C06910F4407F204602D0FFF791FF04E066
:103CD00000F084F8204600F016F925772068016985
:103CE000C943C90708D1C168C943C90704D1891E9E
:103CF0000161204600F06CF920680169C94309069A
:103D000009D4C168C943090605D46FF08001016177
:103D10002046FFF7ECFD20680169C943490609D434
:103D2000C168C943490605D46FF0400101612046CE
:103D300000F058F920680169C94389060BD4C168AD
:103D4000C943890607D46FF0200101612046BDE810
:103D50007040FFF7CDBD70BD10B586B0044614218C
:103D60006846FCF787FC2368174C0021174802229D
:103D7000A34211D1036843F010030360006800F010
:103D80001000059010020090CDE901210120CDE93D
:103D9000031069460E4813E00E4CA34212D103688B
:103DA00043F020030360006800F0200005904020ED
:103DB0000090CDE901210320CDE9031069460648B2
:103DC000FEF7D0FC06B010BD0000014030380240C4
:103DD000001002400044014000140240704770B5DA
:103DE000044690F83C0000260D4601280FD0012023
:103DF00084F83C006AB1042A1DD0082A2FD00C2A6E
:103E00003FD00126002084F83C00304670BD0220DF
:103E100070BD206802F044FA2068816941F0080111
:103E200081612068816921F00401816120688169D4
:103E30002A69114311E0206802F062FA2068816962
:103E400041F4006181612068816921F480618161B0
:103E5000206881692A6941EA02218161D2E72068EC
:103E600002F084FA2068C16941F00801C16120684C
:103E7000C16921F00401C1612068C1692A69114347
:103E800011E0206802F0A6FA2068C16941F40061DF
:103E9000C1612068C16921F48061C1612068C16984
:103EA0002A6941EA0221C161ACE710B5040003D0E0
:103EB00094F83D0010B107E0012010BD002084F807
:103EC0003C00204600F01EF8022084F83D00211D31
:103ED000206802F061F9012084F8460084F83E0071
:103EE00084F83F0084F8400084F8410084F84200E0
:103EF00084F8430084F8440084F8450084F83D00C9
:103F0000002010BD7047704710B50446022249B129
:103F100004290ED0082913D094F84100012816D0A6
:103F2000012010BD94F83E000128F9D184F83E200C
:103F30000FE094F83F000128F2D184F83F2008E018
:103F400094F840000128EBD184F8402001E084F887
:103F500041200122206802F083F916492068164AA0
:103F6000884201D0904203D1436C43F40043436440
:103F70002068884213D0B0F1804F10D00F4988429A
:103F80000DD00F4988420AD00E49884207D090428E
:103F900005D00D49884202D00C49884204D181687D
:103FA00001F00701062903D0016841F00101016019
:103FB000002010BD0000014000040140000400404A
:103FC00000080040000C0040004001400018004084
:103FD00000680349884201D1FEF76CBF70470000BA
:103FE000001000407047704770470000F8B5016846
:103FF00004460868CA684B6910F00F0F4FF00005BF
:1040000059D003F0010602F49077374365D0C10719
:1040100005D0D10503D5216C41F001012164410790
:1040200005D5D90703D0216C41F002012164810735
:1040300005D5D90703D0216C41F0040121640107A3
:1040400007D502F02001314303D0216C41F0080173
:104050002164216C00293AD0800604D5900602D54F
:10406000204602F046FA20684069216CC0F38010B7
:10407000090700D460B3204602F014FA20684069B2
:10408000400621D52068143050E8001F21F040017F
:1040900040E80012002AF5D1A06BA8B16C49016577
:1040A000A06BFEF7CDF9002811D0A06B016D01B017
:1040B000BDE8F040084783060FD593060DD520468E
:1040C000BDE8F84002F015BA2046FFF78DFFF8BDB5
:1040D0002046FFF789FF2564F8BD266B2023012EBB
:1040E00079D1C60677D5D60675D508684868009098
:1040F0004869400640D5A16B086840680004000C80
:10410000EAD0A28D8242E7D9E085C869B0F5807F08
:104110002DD020680C3050E8001F21F4807140E859
:104120000012002AF5D12068143050E8001F21F059
:10413000010140E80012002AF5D12068143050E84F
:10414000001F21F0400140E80012002AF5D184F858
:104150003E30256320680C3050E8001F21F010012C
:1041600040E80012002AF5D1A06BFEF720F9A08DDF
:10417000E18D401A81B229E0A08DE18D401A81B213
:10418000E08D0028A8D00029A6D020680C3050E887
:10419000002F22F4907240E80026002EF5D120680E
:1041A000143050E8002F22F0010240E80026002ED3
:1041B000F5D184F83E30256320680C3050E8002F9C
:1041C00022F0100240E80023002BF5D12046FFF733
:1041D0000AFFF8BDFFE705062BD5150629D594F88B
:1041E0003D002128F5D1A068B0F5805F01D120699C
:1041F000B0B1206A411C2162216800784860E08CDF
:10420000401E0004000CE084E3D12068C16821F066
:104210008001C1602068C16841F04001C160D8E7F9
:10422000206A0088C0F308004860206A801C206271
:10423000E5E74006CDD55006CBD5CA68204622F02A
:104240004002CA6084F83D3000F091F8C1E70000F8
:104250009564000870B5040004D094F83D00002572
:1042600010B106E0012070BD84F83C50204600F0FB
:1042700023F8242084F83D002068C16821F400510F
:10428000C160204602F096F92068016921F490414E
:1042900001612068416921F02A0141612068C168FB
:1042A00041F40051C1602564202084F83D0084F869
:1042B0003E00002070BD000070B586B00646142197
:1042C0006846FCF7D7F924493068884242D1234830
:1042D0000025016841F480210160006800F480201D
:1042E00005901E481038016841F004010160006823
:1042F000694600F0040005904FF4406000900220F1
:10430000CDE9010503200390072004901448FEF72F
:1043100029FA154C134820604FF00060C4E90105EC
:104320004014C4E9035080106561C4E906500002DE
:10433000C4E908052046FEF765F908B1FDF709FA5A
:10434000B463002205212720A663FEF74BFE272039
:10435000FEF73AFE06B070BD00480040403802400B
:1043600000080240286002404C0A00207047704755
:10437000FEE701684A69D24352050FD46FF48062A8
:104380004A61002140F8301F202242738173026984
:1043900042F004020261017301207047002070475F
:1043A0002DE9F84F0446006889460B9D0168984640
:1043B000174641F4806101602068016841F4807112
:1043C000016000954FF0011B0022594620460A9BD0
:1043D00000F0DEF84FF4007A40B120680068C005B4
:1043E00001D5C4F840A00320BDE8F88F216809F08A
:1043F000FE0008612B46284920460A9A00F0FCF886
:10440000F0BB20684169806900902A4620460A99DD
:1044100000F070F940B1206C04283AD1206801689E
:1044200041F40071016034E0FEB2B8F1010F09D02F
:104430002168380A08612A4620460A9900F05AF98C
:104440000028E8D1206806612A4620460A9900F033
:1044500051F90028DFD12068016841F480710160C2
:1044600000950022594620460A9B00F091F800284A
:10447000B3D1216809F0FF0040F00100086100E0BD
:1044800007E02B46044920460A9A00F0B5F80028B8
:10449000AAD00120A8E70000020001002DE9F8439E
:1044A000044600680D46DDE90897016898461646FF
:1044B00041F4807101604B4600224FF0011120460B
:1044C000009700F065F848B120680068C00502D583
:1044D0004FF4007020640320BDE8F883216805F0E4
:1044E000FE0008613B464A461549204600F084F824
:1044F00088B920684169806900903A46494620465B
:1045000000F0F8F848B1206C042804D12068016854
:1045100041F4007101600120DEE7F5B2B8F1010F4E
:1045200009D02168300A08613A464946204600F021
:10453000E1F80028E7D1206805610020CCE7000001
:104540000200010070B516460D4604460DE02046F7
:10455000FFF70FFF08B1012070BD681C05D0FEF702
:1045600007FA801BA84207D835B120684069C043CC
:104570004007ECD4002070BD002044F8300F20210B
:104580006173A073216941F0200121612073E2E78A
:104590002DE9F0471E4690460D460446C1F30747F5
:1045A000DDF8209008E0701C06D0FEF7E1F9A0EBE2
:1045B0000900B0420FD876B12068012F18D0806969
:1045C00025EA00000004000C14D000214145EAD087
:1045D0000020BDE8F087002044F8300F20216173EF
:1045E000A073216941F02001216120730120F0E7CF
:1045F0004069E5E70121E9E72DE9F0479A46914650
:104600000E46044600254FF02008C1F3074725E079
:1046100020684069C043400514D42068016841F413
:104620000071016021686FF480604861256384F83F
:104630003D8084F83E50206C40F00400206484F8F3
:104640003C501FE0B9F1FF3F08D0FEF791F9A0EB15
:104650000A0149450CD8B9F1000F09D02068012F93
:1046600013D0806926EA00000004000C0BD0CFE7CD
:1046700044F8305F84F80D80A573206940F0200075
:10468000206125730120BDE8F0874069EAE72DE944
:10469000F041002590460E460446202717E0406969
:1046A000C043C0060CD454F8301B6FF010004861B2
:1046B00044F810596777A577206A2062257717E0BC
:1046C000FEF756F9A0EB0800B04208D83EB12068CA
:1046D0004169C9434906E2D40020BDE8F08144F8AD
:1046E000305F6773A573206940F020002061257357
:1046F0000120F2E770B516460D4604460DE020464F
:10470000FFF737FE08B1012070BD681C05D0FEF729
:104710002FF9801BA84207D835B120684069C043F3
:104720000006ECD4002070BD002044F8300F20219A
:104730006173A073216941F0200121612073E2E7D8
:1047400020499FED210AA1F10C0391ED001A01F11E
:104750000C0283ED001AD2ED000AC1ED000A60EEF2
:10476000801ADFED1A0A90ED002A41EE201A9FED23
:10477000181A42EE011AC2ED001AD1ED011AC3ED6A
:10478000011A92ED012A81ED012A22EE002A01EEA2
:10479000A02AD0ED011A01EE812A82ED012AD1ED85
:1047A000021AC3ED021A92ED022A81ED022A22EECC
:1047B000000A01EEA00AD0ED020A00EE810A82EDA5
:1047C000020A7047D44B00205AF8F63F5D896EBF4D
:1047D000D5A9183B2DE9F04FDFF8DCC0DFF8DCA0ED
:1047E0000CF12408099F00240AF1180B08F1240990
:1047F0000AF1240E04EB44060CEB860593ED050A42
:10480000D5ED000A95ED011A20EE200AD3ED060A37
:1048100000EE810AD3ED070A95ED021A0AEB840532
:1048200000EE810AD5ED000A00EB840530EE200A87
:1048300085ED000A08EB860593ED010AD5ED000A27
:1048400095ED011A20EE200AD3ED020A00EE810A4E
:10485000D3ED030A95ED021A0BEB840500EE810AF5
:10486000D5ED000A01EB840530EE200A85ED000A43
:1048700009EB860597ED010AD5ED000A95ED011AC1
:1048800020EE200AD7ED020A00EE810AD7ED030AD6
:1048900095ED021A0EEB840500EE810AD5ED000AB3
:1048A00002EB8405641CE4B2032C30EE200A85ED93
:1048B000000A9FD3BDE8F08FFC000020744C00205C
:1048C00000487047EC4B002038B502E0642004F04B
:1048D000D9FEFCF762FA0028F8D102E0642004F067
:1048E000D1FE04F057FE0028F8D1224AA2F10C01B3
:1048F000101DFCF769FA1F481430A0F16002A0F106
:104900006C01A0F12403009015460C467838FFF79F
:1049100061FF1848214638382A460446FBF7DCFF79
:1049200014496439A1F10C0291ED030AA1F11803B5
:1049300082ED000AA1F1240083ED000A80ED000A57
:1049400091ED040A82ED010A83ED010A80ED010A6E
:1049500091ED050A82ED020A83ED020A80ED020A5A
:1049600001B02046BDE8304058334832443104F0AD
:104970005EBD0000504C00202DED028B82B000F097
:1049800019F804F08DFE9FED098ADFED098A009089
:10499000B0EE480A00F072F8B0EE680A00F02EF8A7
:1049A0000521684604F075FEF2E700000AD7A33B34
:1049B0000000204210B5FFF787FFFFF781FF09498C
:1049C0009FED092ADFED091A4860BDE81040B7EEF7
:1049D000001ADFED070A9FED070A0321064804F0DD
:1049E00071BF0000B800002000000000CDCC4C3E9C
:1049F0000080894500A08C45404B002070B51848C8
:104A0000184D194C0178A9B1DFED180A204604F0C1
:104A10009DFE94ED0B0AB5EEC00AF1EE10FA03D23A
:104A20009FED130A84ED0B0ABCEEC00A10EE100ACB
:104A300080B212E010EE101A0E4A91420BDD41785E
:104A4000491CC9B24170C82905D901219FED0A0A44
:104A5000017084ED090A41F287302968486370BD0E
:104A6000B8000020C0090020404B00200000204278
:104A7000000000000000204200401C4570B5254A9F
:104A80002DED028BA2F1100482B0B0EE408A211D00
:104A9000101DFCF799F904F12400A0F16002A0F1C7
:104AA0006C010090234616460D467838FFF792FEBB
:104AB00094ED040A543C284684ED090AFFF740FEB1
:104AC000214601F12C003346A4F10C02B0EE480A55
:104AD0000546FCF75BF804F140031A1F191D284630
:104AE00004F0A5FCD4ED0F0A9FED0B0A60EE800ADE
:104AF000C4ED120AD4ED110A60EE800AC4ED140A66
:104B0000D4ED100A20EE800A84ED130A02B0BDEC49
:104B1000028B70BD504C0020E12E6542104810B54C
:104B20000E4901600321416000214FF41022816091
:104B3000C0E903124FF4001242610176012242766D
:104B40008276C27601774277FDF781FA002803D09A
:104B5000BDE81040FCF7FDBD10BD00000064004042
:104B600034080020104810B50E490160032141604F
:104B700000214FF410228160C0E903124FF40012AB
:104B800042610176012242768276C27601774277CF
:104B9000FDF75DFA002803D0BDE81040FCF7D9BD51
:104BA00010BD0000006800405C080020094808B5FE
:104BB000016841F4001101600068002200F4001057
:104BC000009005210C20FEF70DFABDE808400C20EE
:104BD000FEF7FAB93038024010B52E49B4B00022C1
:104BE000D1E90001CDE93101012131A804F08EFDA8
:104BF000294C28491C22E06108316846FBF7E6FC95
:104C00000021684604F058FD224920601C2224310E
:104C100007A8FBF7DBFC002107A804F04DFD1D49A8
:104C200060601C2240310EA8FBF7D0FC00210EA8CA
:104C300004F042FD1749A0601C225C3115A8FBF767
:104C4000C5FC002115A804F037FD1249E0601C22C4
:104C500078311CA8FBF7BAFC00211CA804F02CFD3D
:104C60000C4920611C22943123A8FBF7AFFC0021E2
:104C700023A804F021FD074960611C22B0312AA855
:104C8000FBF7A4FC00212AA804F016FDA06134B0B3
:104C900010BD0000E8CF0008000000202DE9F0471B
:104CA00086B014216846FBF7E5FC5B4800250168E7
:104CB00041F002010160016801F002010591016803
:104CC00041F001010160016801F0010105910168F5
:104CD00041F008010160016801F0080105910168D7
:104CE00041F004010160016801F0040105910168CF
:104CF00041F080010160016801F0800105910168C7
:104D000041F040010160016801F040010591016836
:104D100041F020010160016801F020010591016866
:104D200041F0100101600068DFF8F08000F0100031
:104D30000590002240214046FDF714FE384F4FF405
:104D4000E056002231463846FDF70CFEDFF8D490DD
:104D5000002210214846FDF705FEDFF8CCA0002216
:104D600001215046FDF7FEFD01244020CDE900045D
:104D70000294694640460394FDF7F4FC0096CDE9A1
:104D80000145694638460395FDF7ECFC08204FF4D1
:104D90008816CDE90006694602944046FDF7E2FC1C
:104DA0000620CDE90005214F694638460295FDF7FA
:104DB000D9FC10208DE83100694648460395FDF77F
:104DC000D1FC3020CDE90006694602943846FDF753
:104DD000C9FC0094CDE90145694650460395FDF7AD
:104DE000C1FC002205210920FEF7FCF80920FEF78E
:104DF000EBF8002205210A20FEF7F4F80A20FEF75E
:104E0000E3F8002205211720FEF7ECF81720FEF743
:104E1000DBF806B0BDE8F0873038024000180240E9
:104E2000001C024000000240000402400008024052
:104E30000D4810B50B4901600C49416000214FF449
:104E400080428160C0E9031241618161C1610162F8
:104E5000FDF794FD002803D0BDE81040FCF779BCB5
:104E600010BD0000005C004084080020801A06008D
:104E7000104810B50E4901604FF482714160002165
:104E800002228160C0E90312012242615202826162
:104E90003822C0E90721416281620A21C162FEF71E
:104EA00095FB002803D0BDE81040FCF752BC10BDB4
:104EB00000300140D808002010B588B01C21684699
:104EC000FBF7D8FB144813490024C0E9001441F251
:104ED0008731C0E9024104618461FEF77DFD08B1BC
:104EE000FCF737FC0C48FEF7E0FF08B1FCF731FC9B
:104EF0006020CDE90004029400226946064804942B
:104F0000FEF76DFF08B1FCF724FC0348FEF724FF11
:104F100008B010BD00440140C009002010B596B093
:104F200000240F9410941194129413941C2108A837
:104F30001494FBF79FFB20216846FBF79BFB294855
:104F40002749016041F26701C0E9011440F21F31B5
:104F5000C0E9031444618461FEF73EFD08B1FCF72B
:104F6000F8FB4FF480500F900FA91E48FEF7D2FDBA
:104F700008B1FCF7EEFB1B48FEF797FF08B1FCF702
:104F8000E8FB139413A917481494FEF7DDFC08B14D
:104F9000FCF7DFFB6020CDE908040A940B940C9425
:104FA0000D94002208A90F480E94FEF718FF08B1CF
:104FB000FCF7CFFB00944FF40050CDE9044002947D
:104FC00001940394694607480794FEF792FC08B1E0
:104FD000FCF7BFFB0348FEF7BFFE16B010BD000094
:104FE000000001403009002010B586B000241648AA
:104FF0000094019402940394049412490594C0E926
:1050000000144FF6FF71C0E9024104618461FEF7AC
:10501000E3FC08B1FCF79DFB4FF48050009069461B
:105020000948FEF777FD08B1FCF793FB049404A947
:1050300005480594FEF788FC002801D0FCF789FBA1
:1050400006B010BD000C0040780900200D4810B5D6
:105050000B4901600C49416000214FF4806281607E
:10506000C0E903120C22C0E90521C161FFF7F2F883
:10507000002803D0BDE81040FCF76BBB10BD00005A
:1050800000480040080A0020A0860100FEE700005A
:1050900010B5028842800B885CBA0480A21AC368EB
:1050A000B2F5805F04DD5B1EA2F50052C36006E02E
:1050B00012F5805F03DA5B1C02F50052C360826167
:1050C00004EB433200EE102ADFED090A0261B8EE6C
:1050D000C00A80EE201ABDEEC10A80ED050A4A889A
:1050E00052BA82808A8852BAC2808979017210BD10
:1050F000610BB641421A13B2B1F5805F08DBA1F52E
:105100008051884201DD1846704702F5005205E0E3
:1051100001F580518842F6DDA2F5005210B27047C9
:1051200070B588B00025DDE90C640095CDE901512A
:1051300008210495CDE90551110A8DF800108DF86C
:105140000120190A8DF80210310A8DF804108DF82B
:105150000560210A8DF806108DF803308DF80740A0
:1051600001236A4602A9FCF70BFD08B070BDFEE7FB
:10517000F0B400296CD00A88C2F30A05A5F5806551
:1051800005804A788B78D20842EA4312C2F30A04B7
:10519000A4F5806444808A78CB78920942EA83023D
:1051A0000B796D1D42EA8322C2F30A03A3F58063E3
:1051B00083800A794E79520842EAC612C2F30A0283
:1051C000A2F580620026C2800A2D00D80680641DE8
:1051D0000A2C00D846805B1D0A2B00D88680521D01
:1051E0000A2A00D8C6804A79920902724A79C2F323
:1051F00001124272B0F900304FF4A56203F5257335
:10520000934211D8B0F9023003F5257393420BD8BD
:10521000B0F9043003F52573934205D8B0F9063090
:1052200003F52573934203D9F0BC1621FBF700BAAE
:10523000CA8842810A8982814A89C2810A7B0274B2
:105240004A7B4274CA894282098AA1F580618182BF
:10525000F0BC704700487047E04A00200170427877
:1052600041EA82028270417070470000F0B55048F8
:10527000042201684C7A9FED4F0ADFED4F0A9FED43
:105280004F1ADFED4F1A0223032C04D0022C05D055
:10529000012C0ED041E04271837101E042718271B4
:1052A000B1F9062002EE102AF8EEC22A82EE802A18
:1052B0000EE0427103228271B1F9062000EE102A3D
:1052C000F8EEC00A9FED3F0A80EE802ADFED3E0A2D
:1052D00022EE202A80ED032AB1F9042002EE102AE2
:1052E000B8EEC22AC2EE002A22EEA00A80ED040A1D
:1052F000B1F9022000EE102AB8EEC00A20EE010A31
:1053000080ED060AB1F90010494200EE101AB8EE1D
:10531000C00A20EE210A80ED070A2C4CC779611ED5
:10532000267800220125A478022F05D0012F1ED156
:10533000077A022F1CD01DE00D2C00D1C571022E62
:1053400012D1224C8E68641E012EE46801D036B161
:105350000AE0322C08D905728A60CA6004E0322C57
:1053600002D90372C1E90252C868401CC860F0BD8E
:1053700005728A600E4F2C373F7A022F00D1C3711D
:105380000D2C07D00E2C07D0022E08D080F820203C
:105390004A60F0BDC371F0BD80F82050F0BD4B688D
:1053A0005B1C4B60322BF7D880F82020F0BD00004A
:1053B000844B0020000025C400A0D7456F12033A9B
:1053C0006F12033B0000254400A0D7C5C100002098
:1053D00038B504461248134B0068B0FBF3F04FF4A5
:1053E0007A73584300906068B0F5827F0DD10B4608
:1053F000009200228021204600F016F870B1606D06
:1054000040F020006065032038BD009830B1401E98
:10541000009020688068C0430006F6D5002038BDA3
:105420003000002000366E012DE9F8431E469146FB
:1054300088460446089DFDF79BFA401B351AFDF788
:1054400097FA074625480068C0F3CB30684338E038
:10545000701C37D0FDF78CFAC01BA84203D215B1DF
:10546000009860B32CE02068416821F0E0014160C1
:105470006068B0F5827F0BD1A068B0F5004F02D014
:10548000B0F5806F04D12068016821F0400101600F
:10549000A06AB0F5005F09D12068016821F40051CD
:1054A00001602068016841F400510160012084F826
:1054B0005100002084F850000320BDE8F883002547
:1054C000401E00902068816838EA010004D0002165
:1054D0004945BDD10020F0E70121F9E73000002067
:1054E0002DED028B82B000F083F83E4C9FED3C8A9C
:1054F00001263D4F4FF0020804F5BC7900254FF41A
:10550000007A00BFD4F8C000B0F9041000EE101A01
:10551000B8EEC00A20EE080A84ED590A0069D4F8F2
:10552000C410D4ED320A401A00EE100AB8EEC00AD8
:1055300020EE200A84ED5A0A2168C87920B101289A
:1055400004D0022804D005E0257103E0267101E0B3
:1055500084F80480087A012807D0022809D094F83A
:10556000190260B1012802D005E084F81962142004
:1055700002E084F819825020A4F8BE0001E0A4F8EB
:10558000BE50184800F0D4F82079494600F09CF845
:10559000207928B9A4F8C451A4F81452A4F874517D
:1055A0003968B4F9BE004863B4F97401514600EE9D
:1055B000100AB8EEC00AB1EE400ABDEEC00A10EE05
:1055C000100A00B2CDE90005B4F91432B4F9C421CF
:1055D0000648FFF7A5FD032004F054F892E7000009
:1055E000398EE3BCF4530020300900203408002039
:1055F00070B52DED048BFBF7D5FF2A4C00252060FC
:1056000084F8195200F042FFC4F8C0009FED260A4A
:105610009FED268A84F8185284ED320AB2EE052AEC
:10562000F0EE481AB2EE081ADFED210A9FED210ACA
:10563000032104F1CC0004F045F9DFED218AB0EE3E
:10564000482AF0EE481A9FED1C1ADFED1C0AB0EE56
:10565000680A032104F5887004F034F9FCF77CF83B
:10566000C4F87801FCF77CF89FED169AC4F8C801DD
:1056700005EB8500F0EE481A04EB0010B0EE612A4D
:10568000B2EE0E1AF0EE490AB0EE680A032100F5F8
:10569000BE7004F017F96D1CEDB2022DE8D3BDEC1D
:1056A000048B70BDF45300200000A0BA000000007D
:1056B000000070420000964300008C4200C0DA45B2
:1056C00000401C460000FA4370B50E46012822D067
:1056D0009FED140A86ED120A86ED260A5FF000059A
:1056E00005EB850006EB00142068D4ED120AB0F932
:1056F000040000EE100A201DB8EEC00A04F026F8DF
:10570000BDEEC00A6D1CEDB210EE100A022DA4F819
:105710004C00E5D370BD9FED040A86ED120A9FEDA3
:10572000030AD9E70000000000803B4500803BC52C
:1057300010B5044600790022D4ED5A0A012812D08F
:1057400084F81822C4ED5C0A94ED591A94ED5C0AB1
:1057500004F1CC00FBF7D1FFBDEEC00A10EE100A39
:10576000A4F8740110BD94F818020121A8B1012811
:1057700030D00228E8D194ED5C0A1E4A30EE600A6F
:10578000B0EEC00A10EE100A9042DDDAB4F81E0244
:10579000B0F10100A4F81E0219E0206890F8202062
:1057A0001548012A02D0022A07D00CE00322027019
:1057B000012A08DBA4F81E1209E007220270052A5C
:1057C00001DB0520E6E7B4F81E020028BCD084F80F
:1057D0001812B9E7B4F81E0248B19FED080A02207A
:1057E00084F8180230EE800A84ED5C0AACE784F895
:1057F0001822A9E700004040780100200000344250
:1058000010B5012003F03EFFFBE710B504462DED77
:10581000048BB0EE418AF0EE608AB0EE409A00F060
:1058200073FA204603F098FD204603F035FDB0EEF4
:10583000481AF0EE680AB0EE490ABDEC048B204627
:10584000BDE8104000F018B810B50A4A0446111F10
:10585000FBF79AFC04F5806090ED311A05480C388E
:10586000D0ED030A90ED020A2046BDE81040FFF794
:10587000CCBF00007401002030B505462DED108B23
:10588000B0EE609AF0EE409A85B0B0EE418A9FED9E
:10589000FE0B00F0F5FF51EC100B05F003FD044684
:1058A00018EE100A07F06EF89FEDF91B53EC112B60
:1058B00006F06AFA9FEDF81B53EC112B05F094FFEC
:1058C00005F0F0FC08EE100A9FEDF5EA95ED020AEE
:1058D000DFEDF40A20EE200ADFEDF30A95F9440526
:1058E000C0EE808A06F0DCF941EC1D0B18EE900A40
:1058F00007F048F841EC1C0B204607F043F841EC58
:10590000100B01F081FBB0EE40AAF0EE60AA9FED13
:10591000E70A28EE008A18EE100A07F033F853EC75
:105920001A2B06F031FA41EC1A0B19EE100A07F0A7
:1059300029F853EC1A2B06F023FD41EC100B9FEDD8
:10594000DCFBB0EE4F1AF0EE6F1A01F019FCB0EE6E
:1059500040BAF0EE60BA204607F014F841EC100BA4
:1059600002F036FAB0EE40AAF0EE60AA18EE100A85
:1059700007F008F853EC1A2B06F006FA41EC1A0B64
:1059800019EE900A06F0FEFF53EC1A2B06F0F8FC15
:1059900041EC100BB0EE4F1AF0EE6F1A01F0F0FB75
:1059A00053EC1B2B51EC100B05F0DEFD41EC100B02
:1059B00002F072FA53EC1C2B51EC100B06F0E4F9D8
:1059C00053EC1D2B06F0E0F905F06CFC009095F906
:1059D000540506F065F941EC1D0B18EE900A06F02F
:1059E000D1FF41EC1C0B204606F0CCFF41EC100B24
:1059F00001F00AFBB0EE40AAF0EE60AA18EE100A21
:105A000006F0C0FF53EC1A2B06F0BEF941EC1A0B5E
:105A100019EE100A06F0B6FF53EC1A2B05F0A4FDA0
:105A200041EC100BB0EE4F1AF0EE6F1A01F0A8FB2C
:105A3000B0EE40BAF0EE60BA204606F0A3FF41ECAB
:105A4000100B02F0C5F9B0EE40AAF0EE60AA18EE15
:105A5000100A06F097FF53EC1A2B06F095F941EC6B
:105A60001A0B19EE900A06F08DFF53EC1A2B06F074
:105A700087FC41EC100BB0EE4F1AF0EE6F1A01F0FC
:105A80007FFB53EC1B2B51EC100B05F06DFD41EC33
:105A9000100B02F001FA53EC1C2B51EC100B06F02A
:105AA00073F953EC1D2B06F06FF905F0FBFB019029
:105AB00095F9640506F0F4F841EC1D0B18EE900A18
:105AC00006F060FF41EC1C0B204606F05BFF41EC4A
:105AD000100B01F099FAB0EE40AAF0EE60AA18EEB1
